{
  "contractName": "PatchHistory",
  "abi": [
    {
      "inputs": [],
      "stateMutability": "nonpayable",
      "type": "constructor"
    },
    {
      "inputs": [
        {
          "internalType": "uint256",
          "name": "",
          "type": "uint256"
        }
      ],
      "name": "allPatches",
      "outputs": [
        {
          "internalType": "contract Patch",
          "name": "",
          "type": "address"
        }
      ],
      "stateMutability": "view",
      "type": "function",
      "constant": true
    },
    {
      "inputs": [],
      "name": "currPatch",
      "outputs": [
        {
          "internalType": "uint256",
          "name": "",
          "type": "uint256"
        }
      ],
      "stateMutability": "view",
      "type": "function",
      "constant": true
    },
    {
      "inputs": [],
      "name": "createNewPatch",
      "outputs": [],
      "stateMutability": "nonpayable",
      "type": "function"
    },
    {
      "inputs": [],
      "name": "getAllPatches",
      "outputs": [
        {
          "internalType": "contract Patch[]",
          "name": "",
          "type": "address[]"
        }
      ],
      "stateMutability": "view",
      "type": "function",
      "constant": true
    }
  ],
  "bytecode": "0x608060405234801561001057600080fd5b5033600260006101000a81548173ffffffffffffffffffffffffffffffffffffffff021916908373ffffffffffffffffffffffffffffffffffffffff1602179055506122d8806100616000396000f3fe608060405234801561001057600080fd5b506004361061004c5760003560e01c80635598c4e61461005157806369c23cb01461006f578063b64e60b214610079578063c358dd2a14610097575b600080fd5b6100596100c7565b60405161006691906102fc565b60405180910390f35b6100776100cd565b005b610081610209565b60405161008e9190610445565b60405180910390f35b6100b160048036038101906100ac9190610498565b610297565b6040516100be91906104d4565b60405180910390f35b60015481565b600260009054906101000a900473ffffffffffffffffffffffffffffffffffffffff1673ffffffffffffffffffffffffffffffffffffffff163373ffffffffffffffffffffffffffffffffffffffff161461015d576040517f08c379a000000000000000000000000000000000000000000000000000000000815260040161015490610572565b60405180910390fd5b600080549050600181905550600060015460405161017a906102d6565b61018491906102fc565b604051809103906000f0801580156101a0573d6000803e3d6000fd5b5090506000819080600181540180825580915050600190039060005260206000200160009091909190916101000a81548173ffffffffffffffffffffffffffffffffffffffff021916908373ffffffffffffffffffffffffffffffffffffffff16021790555050565b6060600080548060200260200160405190810160405280929190818152602001828054801561028d57602002820191906000526020600020905b8160009054906101000a900473ffffffffffffffffffffffffffffffffffffffff1673ffffffffffffffffffffffffffffffffffffffff1681526020019060010190808311610243575b5050505050905090565b600081815481106102a757600080fd5b906000526020600020016000915054906101000a900473ffffffffffffffffffffffffffffffffffffffff1681565b611d108061059383390190565b6000819050919050565b6102f6816102e3565b82525050565b600060208201905061031160008301846102ed565b92915050565b600081519050919050565b600082825260208201905092915050565b6000819050602082019050919050565b600073ffffffffffffffffffffffffffffffffffffffff82169050919050565b6000819050919050565b600061038861038361037e84610343565b610363565b610343565b9050919050565b600061039a8261036d565b9050919050565b60006103ac8261038f565b9050919050565b6103bc816103a1565b82525050565b60006103ce83836103b3565b60208301905092915050565b6000602082019050919050565b60006103f282610317565b6103fc8185610322565b935061040783610333565b8060005b8381101561043857815161041f88826103c2565b975061042a836103da565b92505060018101905061040b565b5085935050505092915050565b6000602082019050818103600083015261045f81846103e7565b905092915050565b600080fd5b610475816102e3565b811461048057600080fd5b50565b6000813590506104928161046c565b92915050565b6000602082840312156104ae576104ad610467565b5b60006104bc84828501610483565b91505092915050565b6104ce816103a1565b82525050565b60006020820190506104e960008301846104c5565b92915050565b600082825260208201905092915050565b7f556e617574686f72697a656420656e7469747920747279696e6720746f20637260008201527f6561746520612070617463680000000000000000000000000000000000000000602082015250565b600061055c602c836104ef565b915061056782610500565b604082019050919050565b6000602082019050818103600083015261058b8161054f565b905091905056fe60806040523480156200001157600080fd5b5060405162001d1038038062001d108339818101604052810190620000379190620000bc565b806000819055504260018190555060f06001546200005691906200011d565b6002819055506202a3006002546200006f91906200011d565b600381905550506200017a565b600080fd5b6000819050919050565b620000968162000081565b8114620000a257600080fd5b50565b600081519050620000b6816200008b565b92915050565b600060208284031215620000d557620000d46200007c565b5b6000620000e584828501620000a5565b91505092915050565b7f4e487b7100000000000000000000000000000000000000000000000000000000600052601160045260246000fd5b60006200012a8262000081565b9150620001378362000081565b9250827fffffffffffffffffffffffffffffffffffffffffffffffffffffffffffffffff038211156200016f576200016e620000ee565b5b828201905092915050565b611b86806200018a6000396000f3fe608060405234801561001057600080fd5b50600436106100b45760003560e01c8063578e5c2211610071578063578e5c221461017e578063705d9c92146101b257806378bb8b22146101d0578063a7bb8078146101ee578063b1610d7e1461020c578063c066d67d1461022a576100b4565b806309e69ede146100b957806314034bd2146100ea5780632a4a1b73146101085780632acada4d146101245780632cf5bcba1461014257806341fec47514610160575b600080fd5b6100d360048036038101906100ce9190610eea565b610246565b6040516100e1929190610f32565b60405180910390f35b6100f2610284565b6040516100ff91906110ab565b60405180910390f35b610122600480360381019061011d91906110f9565b6105e6565b005b61012c6108a5565b6040516101399190611284565b60405180910390f35b61014a610a0a565b60405161015791906112b5565b60405180910390f35b610168610a10565b60405161017591906112b5565b60405180910390f35b610198600480360381019061019391906112d0565b610a16565b6040516101a9959493929190611365565b60405180910390f35b6101ba610b04565b6040516101c791906112b5565b60405180910390f35b6101d8610b0a565b6040516101e591906112b5565b60405180910390f35b6101f6610b10565b60405161020391906112b5565b60405180910390f35b610214610b15565b60405161022191906112b5565b60405180910390f35b610244600480360381019061023f9190611520565b610b1c565b005b60056020528060005260406000206000915090508060000160009054906101000a900460ff16908060000160019054906101000a900460ff16905082565b61028c610d8d565b60035442116102d0576040517f08c379a00000000000000000000000000000000000000000000000000000000081526004016102c7906115ef565b60405180910390fd5b600060048054905011610318576040517f08c379a000000000000000000000000000000000000000000000000000000000815260040161030f90611681565b60405180910390fd5b6000600460008154811061032f5761032e6116a1565b5b90600052602060002090600502016040518060a00160405290816000820160009054906101000a900473ffffffffffffffffffffffffffffffffffffffff1673ffffffffffffffffffffffffffffffffffffffff1673ffffffffffffffffffffffffffffffffffffffff16815260200160018201548152602001600282015481526020016003820180546103c2906116ff565b80601f01602080910402602001604051908101604052809291908181526020018280546103ee906116ff565b801561043b5780601f106104105761010080835404028352916020019161043b565b820191906000526020600020905b81548152906001019060200180831161041e57829003601f168201915b5050505050815260200160048201548152505090506000600190505b6004805490508110156105de5781608001516004828154811061047d5761047c6116a1565b5b90600052602060002090600502016004015411156105cb57600481815481106104a9576104a86116a1565b5b90600052602060002090600502016040518060a00160405290816000820160009054906101000a900473ffffffffffffffffffffffffffffffffffffffff1673ffffffffffffffffffffffffffffffffffffffff1673ffffffffffffffffffffffffffffffffffffffff168152602001600182015481526020016002820154815260200160038201805461053c906116ff565b80601f0160208091040260200160405190810160405280929190818152602001828054610568906116ff565b80156105b55780601f1061058a576101008083540402835291602001916105b5565b820191906000526020600020905b81548152906001019060200180831161059857829003601f168201915b5050505050815260200160048201548152505091505b80806105d69061175f565b915050610457565b508091505090565b60025481101580156105f9575060035481105b610638576040517f08c379a000000000000000000000000000000000000000000000000000000000815260040161062f906117f3565b60405180910390fd5b600560008473ffffffffffffffffffffffffffffffffffffffff1673ffffffffffffffffffffffffffffffffffffffff16815260200190815260200160002060000160019054906101000a900460ff16156106c8576040517f08c379a00000000000000000000000000000000000000000000000000000000081526004016106bf90611885565b60405180910390fd5b8273ffffffffffffffffffffffffffffffffffffffff16600483815481106106f3576106f26116a1565b5b906000526020600020906005020160000160009054906101000a900473ffffffffffffffffffffffffffffffffffffffff1673ffffffffffffffffffffffffffffffffffffffff160361077b576040517f08c379a000000000000000000000000000000000000000000000000000000000815260040161077290611917565b60405180910390fd5b60008210158015610790575060048054905082105b6107cf576040517f08c379a00000000000000000000000000000000000000000000000000000000081526004016107c690611983565b60405180910390fd5b6001600560008573ffffffffffffffffffffffffffffffffffffffff1673ffffffffffffffffffffffffffffffffffffffff16815260200190815260200160002060000160016101000a81548160ff0219169083151502179055506001600483815481106108405761083f6116a1565b5b9060005260206000209060050201600401600082825461086091906119a3565b925050819055507f4d99b957a2bc29a30ebd96a7be8e68fe50a3c701db28a91436490b7d53870ca483836040516108989291906119f9565b60405180910390a1505050565b60606004805480602002602001604051908101604052809291908181526020016000905b82821015610a0157838290600052602060002090600502016040518060a00160405290816000820160009054906101000a900473ffffffffffffffffffffffffffffffffffffffff1673ffffffffffffffffffffffffffffffffffffffff1673ffffffffffffffffffffffffffffffffffffffff1681526020016001820154815260200160028201548152602001600382018054610966906116ff565b80601f0160208091040260200160405190810160405280929190818152602001828054610992906116ff565b80156109df5780601f106109b4576101008083540402835291602001916109df565b820191906000526020600020905b8154815290600101906020018083116109c257829003601f168201915b50505050508152602001600482015481525050815260200190600101906108c9565b50505050905090565b60025481565b60015481565b60048181548110610a2657600080fd5b90600052602060002090600502016000915090508060000160009054906101000a900473ffffffffffffffffffffffffffffffffffffffff1690806001015490806002015490806003018054610a7b906116ff565b80601f0160208091040260200160405190810160405280929190818152602001828054610aa7906116ff565b8015610af45780601f10610ac957610100808354040283529160200191610af4565b820191906000526020600020905b815481529060010190602001808311610ad757829003601f168201915b5050505050908060040154905085565b60035481565b60005481565b60f081565b6202a30081565b6001548110158015610b2f575060025481105b610b6e576040517f08c379a0000000000000000000000000000000000000000000000000000000008152600401610b6590611a6e565b60405180910390fd5b600560008573ffffffffffffffffffffffffffffffffffffffff1673ffffffffffffffffffffffffffffffffffffffff16815260200190815260200160002060000160009054906101000a900460ff1615610bfe576040517f08c379a0000000000000000000000000000000000000000000000000000000008152600401610bf590611b00565b60405180910390fd5b60006040518060a001604052808673ffffffffffffffffffffffffffffffffffffffff1681526020016000548152602001858152602001848152602001600081525090506001600560008773ffffffffffffffffffffffffffffffffffffffff1673ffffffffffffffffffffffffffffffffffffffff16815260200190815260200160002060000160006101000a81548160ff021916908315150217905550600481908060018154018082558091505060019003906000526020600020906005020160009091909190915060008201518160000160006101000a81548173ffffffffffffffffffffffffffffffffffffffff021916908373ffffffffffffffffffffffffffffffffffffffff16021790555060208201518160010155604082015181600201556060820151816003019080519060200190610d40929190610dd5565b506080820151816004015550507f50a0791bda2393848e08a22a2c5f32eed2813d3c257711bd352f7af56f3bd7518582604051610d7e929190611b20565b60405180910390a15050505050565b6040518060a00160405280600073ffffffffffffffffffffffffffffffffffffffff168152602001600081526020016000801916815260200160608152602001600081525090565b828054610de1906116ff565b90600052602060002090601f016020900481019282610e035760008555610e4a565b82601f10610e1c57805160ff1916838001178555610e4a565b82800160010185558215610e4a579182015b82811115610e49578251825591602001919060010190610e2e565b5b509050610e579190610e5b565b5090565b5b80821115610e74576000816000905550600101610e5c565b5090565b6000604051905090565b600080fd5b600080fd5b600073ffffffffffffffffffffffffffffffffffffffff82169050919050565b6000610eb782610e8c565b9050919050565b610ec781610eac565b8114610ed257600080fd5b50565b600081359050610ee481610ebe565b92915050565b600060208284031215610f0057610eff610e82565b5b6000610f0e84828501610ed5565b91505092915050565b60008115159050919050565b610f2c81610f17565b82525050565b6000604082019050610f476000830185610f23565b610f546020830184610f23565b9392505050565b610f6481610eac565b82525050565b6000819050919050565b610f7d81610f6a565b82525050565b6000819050919050565b610f9681610f83565b82525050565b600081519050919050565b600082825260208201905092915050565b60005b83811015610fd6578082015181840152602081019050610fbb565b83811115610fe5576000848401525b50505050565b6000601f19601f8301169050919050565b600061100782610f9c565b6110118185610fa7565b9350611021818560208601610fb8565b61102a81610feb565b840191505092915050565b600060a08301600083015161104d6000860182610f5b565b5060208301516110606020860182610f74565b5060408301516110736040860182610f8d565b506060830151848203606086015261108b8282610ffc565b91505060808301516110a06080860182610f74565b508091505092915050565b600060208201905081810360008301526110c58184611035565b905092915050565b6110d681610f6a565b81146110e157600080fd5b50565b6000813590506110f3816110cd565b92915050565b60008060006060848603121561111257611111610e82565b5b600061112086828701610ed5565b9350506020611131868287016110e4565b9250506040611142868287016110e4565b9150509250925092565b600081519050919050565b600082825260208201905092915050565b6000819050602082019050919050565b600060a0830160008301516111906000860182610f5b565b5060208301516111a36020860182610f74565b5060408301516111b66040860182610f8d565b50606083015184820360608601526111ce8282610ffc565b91505060808301516111e36080860182610f74565b508091505092915050565b60006111fa8383611178565b905092915050565b6000602082019050919050565b600061121a8261114c565b6112248185611157565b93508360208202850161123685611168565b8060005b85811015611272578484038952815161125385826111ee565b945061125e83611202565b925060208a0199505060018101905061123a565b50829750879550505050505092915050565b6000602082019050818103600083015261129e818461120f565b905092915050565b6112af81610f6a565b82525050565b60006020820190506112ca60008301846112a6565b92915050565b6000602082840312156112e6576112e5610e82565b5b60006112f4848285016110e4565b91505092915050565b61130681610eac565b82525050565b61131581610f83565b82525050565b600082825260208201905092915050565b600061133782610f9c565b611341818561131b565b9350611351818560208601610fb8565b61135a81610feb565b840191505092915050565b600060a08201905061137a60008301886112fd565b61138760208301876112a6565b611394604083018661130c565b81810360608301526113a6818561132c565b90506113b560808301846112a6565b9695505050505050565b6113c881610f83565b81146113d357600080fd5b50565b6000813590506113e5816113bf565b92915050565b600080fd5b600080fd5b7f4e487b7100000000000000000000000000000000000000000000000000000000600052604160045260246000fd5b61142d82610feb565b810181811067ffffffffffffffff8211171561144c5761144b6113f5565b5b80604052505050565b600061145f610e78565b905061146b8282611424565b919050565b600067ffffffffffffffff82111561148b5761148a6113f5565b5b61149482610feb565b9050602081019050919050565b82818337600083830152505050565b60006114c36114be84611470565b611455565b9050828152602081018484840111156114df576114de6113f0565b5b6114ea8482856114a1565b509392505050565b600082601f830112611507576115066113eb565b5b81356115178482602086016114b0565b91505092915050565b6000806000806080858703121561153a57611539610e82565b5b600061154887828801610ed5565b9450506020611559878288016113d6565b935050604085013567ffffffffffffffff81111561157a57611579610e87565b5b611586878288016114f2565b9250506060611597878288016110e4565b91505092959194509250565b7f506174636820686173206e6f7420656e64656400000000000000000000000000600082015250565b60006115d960138361131b565b91506115e4826115a3565b602082019050919050565b60006020820190508181036000830152611608816115cc565b9050919050565b7f4e6f2061737365747320776572652075706c6f6164656420746869732070617460008201527f6368000000000000000000000000000000000000000000000000000000000000602082015250565b600061166b60228361131b565b91506116768261160f565b604082019050919050565b6000602082019050818103600083015261169a8161165e565b9050919050565b7f4e487b7100000000000000000000000000000000000000000000000000000000600052603260045260246000fd5b7f4e487b7100000000000000000000000000000000000000000000000000000000600052602260045260246000fd5b6000600282049050600182168061171757607f821691505b60208210810361172a576117296116d0565b5b50919050565b7f4e487b7100000000000000000000000000000000000000000000000000000000600052601160045260246000fd5b600061176a82610f6a565b91507fffffffffffffffffffffffffffffffffffffffffffffffffffffffffffffffff820361179c5761179b611730565b5b600182019050919050565b7f4e6f7420696e20766f74696e6720706572696f64000000000000000000000000600082015250565b60006117dd60148361131b565b91506117e8826117a7565b602082019050919050565b6000602082019050818103600083015261180c816117d0565b9050919050565b7f55706c6f616465722068617320766f74656420666f7220616e2061737365742060008201527f7468697320706174636800000000000000000000000000000000000000000000602082015250565b600061186f602a8361131b565b915061187a82611813565b604082019050919050565b6000602082019050818103600083015261189e81611862565b9050919050565b7f566f7465722063616e277420766f746520666f72207468656972206f776e206160008201527f7373657400000000000000000000000000000000000000000000000000000000602082015250565b600061190160248361131b565b915061190c826118a5565b604082019050919050565b60006020820190508181036000830152611930816118f4565b9050919050565b7f496e64657820696e76616c696400000000000000000000000000000000000000600082015250565b600061196d600d8361131b565b915061197882611937565b602082019050919050565b6000602082019050818103600083015261199c81611960565b9050919050565b60006119ae82610f6a565b91506119b983610f6a565b9250827fffffffffffffffffffffffffffffffffffffffffffffffffffffffffffffffff038211156119ee576119ed611730565b5b828201905092915050565b6000604082019050611a0e60008301856112fd565b611a1b60208301846112a6565b9392505050565b7f4e6f7420696e2075706c6f616420706572696f64000000000000000000000000600082015250565b6000611a5860148361131b565b9150611a6382611a22565b602082019050919050565b60006020820190508181036000830152611a8781611a4b565b9050919050565b7f55706c6f61646572206861732075706c6f6164656420616e206173736574207460008201527f6869732070617463680000000000000000000000000000000000000000000000602082015250565b6000611aea60298361131b565b9150611af582611a8e565b604082019050919050565b60006020820190508181036000830152611b1981611add565b9050919050565b6000604082019050611b3560008301856112fd565b8181036020830152611b478184611035565b9050939250505056fea26469706673582212208e0af2374d5a8cb752194cec37e7692dc3ffeb226217a5567b63ab2675c3ee2d64736f6c634300080d0033a26469706673582212204da3e5266557ae318e9c2c811552ff6950ee1ae65177f0b20e636bc2eb4433bc64736f6c634300080d0033",
  "immutableReferences": {},
  "source": "// SPDX-License-Identifier: UNLICENSED\r\n\r\npragma solidity >=0.7.0 <0.9.0;\r\n\r\nimport \"./Patch.sol\";\r\n\r\ncontract PatchHistory {\r\n    Patch[] public allPatches;\r\n    uint256 public currPatch;\r\n    address private creator;\r\n\r\n    constructor() {\r\n        creator = msg.sender;\r\n    }\r\n\r\n    function createNewPatch() public {\r\n        require(msg.sender == creator, \"Unauthorized entity trying to create a patch\");\r\n        currPatch = allPatches.length;\r\n        Patch newPatch = new Patch(currPatch);\r\n        allPatches.push(newPatch);\r\n    }\r\n\r\n    function getAllPatches() public view returns (Patch[] memory) {\r\n        return allPatches;\r\n    }\r\n}",
  "sourcePath": "D:\\Tubes\\MetaMaker\\dApp\\contracts\\PatchHistory.sol",
  "compiler": {
    "name": "solc",
    "version": "0.8.13+commit.abaa5c0e.Emscripten.clang"
  },
  "schemaVersion": "3.4.16",
  "updatedAt": "2024-12-18T12:59:41.897Z",
  "networkType": "ethereum",
  "devdoc": {
    "kind": "dev",
    "methods": {},
    "version": 1
  },
  "userdoc": {
    "kind": "user",
    "methods": {},
    "version": 1
  }
}