{
  "contractName": "PatchHistory",
  "abi": [
    {
      "inputs": [],
      "stateMutability": "nonpayable",
      "type": "constructor"
    },
    {
      "inputs": [
        {
          "internalType": "uint256",
          "name": "",
          "type": "uint256"
        }
      ],
      "name": "allPatches",
      "outputs": [
        {
          "internalType": "contract Patch",
          "name": "",
          "type": "address"
        }
      ],
      "stateMutability": "view",
      "type": "function",
      "constant": true
    },
    {
      "inputs": [],
      "name": "currPatch",
      "outputs": [
        {
          "internalType": "uint256",
          "name": "",
          "type": "uint256"
        }
      ],
      "stateMutability": "view",
      "type": "function",
      "constant": true
    },
    {
      "inputs": [
        {
          "internalType": "uint256",
          "name": "currTime",
          "type": "uint256"
        }
      ],
      "name": "createNewPatch",
      "outputs": [],
      "stateMutability": "nonpayable",
      "type": "function"
    },
    {
      "inputs": [],
      "name": "getAllPatches",
      "outputs": [
        {
          "internalType": "contract Patch[]",
          "name": "",
          "type": "address[]"
        }
      ],
      "stateMutability": "view",
      "type": "function",
      "constant": true
    }
  ],
  "bytecode": "0x608060405234801561001057600080fd5b5033600260006101000a81548173ffffffffffffffffffffffffffffffffffffffff021916908373ffffffffffffffffffffffffffffffffffffffff160217905550612967806100616000396000f3fe608060405234801561001057600080fd5b506004361061004c5760003560e01c80632d138f78146100515780635598c4e61461006d578063b64e60b21461008b578063c358dd2a146100a9575b600080fd5b61006b60048036038101906100669190610430565b6100d9565b005b610075610315565b604051610082919061046c565b60405180910390f35b61009361031b565b6040516100a091906105b5565b60405180910390f35b6100c360048036038101906100be9190610430565b6103a9565b6040516100d091906105e6565b60405180910390f35b600260009054906101000a900473ffffffffffffffffffffffffffffffffffffffff1673ffffffffffffffffffffffffffffffffffffffff163373ffffffffffffffffffffffffffffffffffffffff1614610169576040517f08c379a000000000000000000000000000000000000000000000000000000000815260040161016090610684565b60405180910390fd5b600080805490501480610229575060006001548154811061018d5761018c6106a4565b5b9060005260206000200160009054906101000a900473ffffffffffffffffffffffffffffffffffffffff1673ffffffffffffffffffffffffffffffffffffffff1663705d9c926040518163ffffffff1660e01b8152600401602060405180830381865afa158015610202573d6000803e3d6000fd5b505050506040513d601f19601f8201168201806040525081019061022691906106e8565b81115b610268576040517f08c379a000000000000000000000000000000000000000000000000000000000815260040161025f90610761565b60405180910390fd5b6000805490506001819055506000600154604051610285906103e8565b61028f919061046c565b604051809103906000f0801580156102ab573d6000803e3d6000fd5b5090506000819080600181540180825580915050600190039060005260206000200160009091909190916101000a81548173ffffffffffffffffffffffffffffffffffffffff021916908373ffffffffffffffffffffffffffffffffffffffff1602179055505050565b60015481565b6060600080548060200260200160405190810160405280929190818152602001828054801561039f57602002820191906000526020600020905b8160009054906101000a900473ffffffffffffffffffffffffffffffffffffffff1673ffffffffffffffffffffffffffffffffffffffff1681526020019060010190808311610355575b5050505050905090565b600081815481106103b957600080fd5b906000526020600020016000915054906101000a900473ffffffffffffffffffffffffffffffffffffffff1681565b6121b08061078283390190565b600080fd5b6000819050919050565b61040d816103fa565b811461041857600080fd5b50565b60008135905061042a81610404565b92915050565b600060208284031215610446576104456103f5565b5b60006104548482850161041b565b91505092915050565b610466816103fa565b82525050565b6000602082019050610481600083018461045d565b92915050565b600081519050919050565b600082825260208201905092915050565b6000819050602082019050919050565b600073ffffffffffffffffffffffffffffffffffffffff82169050919050565b6000819050919050565b60006104f86104f36104ee846104b3565b6104d3565b6104b3565b9050919050565b600061050a826104dd565b9050919050565b600061051c826104ff565b9050919050565b61052c81610511565b82525050565b600061053e8383610523565b60208301905092915050565b6000602082019050919050565b600061056282610487565b61056c8185610492565b9350610577836104a3565b8060005b838110156105a857815161058f8882610532565b975061059a8361054a565b92505060018101905061057b565b5085935050505092915050565b600060208201905081810360008301526105cf8184610557565b905092915050565b6105e081610511565b82525050565b60006020820190506105fb60008301846105d7565b92915050565b600082825260208201905092915050565b7f556e617574686f72697a656420656e7469747920747279696e6720746f20637260008201527f6561746520612070617463680000000000000000000000000000000000000000602082015250565b600061066e602c83610601565b915061067982610612565b604082019050919050565b6000602082019050818103600083015261069d81610661565b9050919050565b7f4e487b7100000000000000000000000000000000000000000000000000000000600052603260045260246000fd5b6000815190506106e281610404565b92915050565b6000602082840312156106fe576106fd6103f5565b5b600061070c848285016106d3565b91505092915050565b7f43757272656e7420706174636820686173206e6f7420656e6465640000000000600082015250565b600061074b601b83610601565b915061075682610715565b602082019050919050565b6000602082019050818103600083015261077a8161073e565b905091905056fe60806040523480156200001157600080fd5b50604051620021b0380380620021b08339818101604052810190620000379190620000be565b8060008190555042600181905550620fd2006001546200005891906200011f565b6002819055506202a3006002546200007191906200011f565b600381905550506200017c565b600080fd5b6000819050919050565b620000988162000083565b8114620000a457600080fd5b50565b600081519050620000b8816200008d565b92915050565b600060208284031215620000d757620000d66200007e565b5b6000620000e784828501620000a7565b91505092915050565b7f4e487b7100000000000000000000000000000000000000000000000000000000600052601160045260246000fd5b60006200012c8262000083565b9150620001398362000083565b9250827fffffffffffffffffffffffffffffffffffffffffffffffffffffffffffffffff03821115620001715762000170620000f0565b5b828201905092915050565b612024806200018c6000396000f3fe608060405234801561001057600080fd5b506004361061009d5760003560e01c806341fec4751161006657806341fec4751461015b578063578e5c2214610179578063705d9c92146101ae57806378bb8b22146101cc578063e42e0720146101ea5761009d565b8062c2943c146100a257806309e69ede146100d25780632a4a1b73146101035780632acada4d1461011f5780632cf5bcba1461013d575b600080fd5b6100bc60048036038101906100b791906111c3565b610206565b6040516100c99190611382565b60405180910390f35b6100ec60048036038101906100e791906113d0565b61068e565b6040516100fa929190611418565b60405180910390f35b61011d60048036038101906101189190611441565b6106cc565b005b6101276109f9565b60405161013491906115e6565b60405180910390f35b610145610bf0565b6040516101529190611617565b60405180910390f35b610163610bf6565b6040516101709190611617565b60405180910390f35b610193600480360381019061018e91906111c3565b610bfc565b6040516101a59695949392919061169a565b60405180910390f35b6101b6610d78565b6040516101c39190611617565b60405180910390f35b6101d4610d7e565b6040516101e19190611617565b60405180910390f35b61020460048036038101906101ff919061186a565b610d84565b005b61020e611087565b6003548211610252576040517f08c379a000000000000000000000000000000000000000000000000000000000815260040161024990611969565b60405180910390fd5b60006004805490501161029a576040517f08c379a0000000000000000000000000000000000000000000000000000000008152600401610291906119fb565b60405180910390fd5b600060046000815481106102b1576102b0611a1b565b5b90600052602060002090600602016040518060c00160405290816000820160009054906101000a900473ffffffffffffffffffffffffffffffffffffffff1673ffffffffffffffffffffffffffffffffffffffff1673ffffffffffffffffffffffffffffffffffffffff168152602001600182015481526020016002820154815260200160038201805461034490611a79565b80601f016020809104026020016040519081016040528092919081815260200182805461037090611a79565b80156103bd5780601f10610392576101008083540402835291602001916103bd565b820191906000526020600020905b8154815290600101906020018083116103a057829003601f168201915b505050505081526020016004820180546103d690611a79565b80601f016020809104026020016040519081016040528092919081815260200182805461040290611a79565b801561044f5780601f106104245761010080835404028352916020019161044f565b820191906000526020600020905b81548152906001019060200180831161043257829003601f168201915b5050505050815260200160058201548152505090506000600190505b600480549050811015610684578160a001516004828154811061049157610490611a1b565b5b906000526020600020906006020160050154111561067157600481815481106104bd576104bc611a1b565b5b90600052602060002090600602016040518060c00160405290816000820160009054906101000a900473ffffffffffffffffffffffffffffffffffffffff1673ffffffffffffffffffffffffffffffffffffffff1673ffffffffffffffffffffffffffffffffffffffff168152602001600182015481526020016002820154815260200160038201805461055090611a79565b80601f016020809104026020016040519081016040528092919081815260200182805461057c90611a79565b80156105c95780601f1061059e576101008083540402835291602001916105c9565b820191906000526020600020905b8154815290600101906020018083116105ac57829003601f168201915b505050505081526020016004820180546105e290611a79565b80601f016020809104026020016040519081016040528092919081815260200182805461060e90611a79565b801561065b5780601f106106305761010080835404028352916020019161065b565b820191906000526020600020905b81548152906001019060200180831161063e57829003601f168201915b5050505050815260200160058201548152505091505b808061067c90611ad9565b91505061046b565b5080915050919050565b60056020528060005260406000206000915090508060000160009054906101000a900460ff16908060000160019054906101000a900460ff16905082565b60025481101580156106df575060035481105b61071e576040517f08c379a000000000000000000000000000000000000000000000000000000000815260040161071590611b6d565b60405180910390fd5b600560008473ffffffffffffffffffffffffffffffffffffffff1673ffffffffffffffffffffffffffffffffffffffff16815260200190815260200160002060000160019054906101000a900460ff16156107ae576040517f08c379a00000000000000000000000000000000000000000000000000000000081526004016107a590611bff565b60405180910390fd5b8273ffffffffffffffffffffffffffffffffffffffff16600483815481106107d9576107d8611a1b565b5b906000526020600020906006020160000160009054906101000a900473ffffffffffffffffffffffffffffffffffffffff1673ffffffffffffffffffffffffffffffffffffffff1603610861576040517f08c379a000000000000000000000000000000000000000000000000000000000815260040161085890611c91565b60405180910390fd5b60008210158015610876575060048054905082105b6108b5576040517f08c379a00000000000000000000000000000000000000000000000000000000081526004016108ac90611cfd565b60405180910390fd5b3373ffffffffffffffffffffffffffffffffffffffff168373ffffffffffffffffffffffffffffffffffffffff1614610923576040517f08c379a000000000000000000000000000000000000000000000000000000000815260040161091a90611d8f565b60405180910390fd5b6001600560008573ffffffffffffffffffffffffffffffffffffffff1673ffffffffffffffffffffffffffffffffffffffff16815260200190815260200160002060000160016101000a81548160ff02191690831515021790555060016004838154811061099457610993611a1b565b5b906000526020600020906006020160050160008282546109b49190611daf565b925050819055507f4d99b957a2bc29a30ebd96a7be8e68fe50a3c701db28a91436490b7d53870ca483836040516109ec929190611e05565b60405180910390a1505050565b60606004805480602002602001604051908101604052809291908181526020016000905b82821015610be757838290600052602060002090600602016040518060c00160405290816000820160009054906101000a900473ffffffffffffffffffffffffffffffffffffffff1673ffffffffffffffffffffffffffffffffffffffff1673ffffffffffffffffffffffffffffffffffffffff1681526020016001820154815260200160028201548152602001600382018054610aba90611a79565b80601f0160208091040260200160405190810160405280929190818152602001828054610ae690611a79565b8015610b335780601f10610b0857610100808354040283529160200191610b33565b820191906000526020600020905b815481529060010190602001808311610b1657829003601f168201915b50505050508152602001600482018054610b4c90611a79565b80601f0160208091040260200160405190810160405280929190818152602001828054610b7890611a79565b8015610bc55780601f10610b9a57610100808354040283529160200191610bc5565b820191906000526020600020905b815481529060010190602001808311610ba857829003601f168201915b5050505050815260200160058201548152505081526020019060010190610a1d565b50505050905090565b60025481565b60015481565b60048181548110610c0c57600080fd5b90600052602060002090600602016000915090508060000160009054906101000a900473ffffffffffffffffffffffffffffffffffffffff1690806001015490806002015490806003018054610c6190611a79565b80601f0160208091040260200160405190810160405280929190818152602001828054610c8d90611a79565b8015610cda5780601f10610caf57610100808354040283529160200191610cda565b820191906000526020600020905b815481529060010190602001808311610cbd57829003601f168201915b505050505090806004018054610cef90611a79565b80601f0160208091040260200160405190810160405280929190818152602001828054610d1b90611a79565b8015610d685780601f10610d3d57610100808354040283529160200191610d68565b820191906000526020600020905b815481529060010190602001808311610d4b57829003601f168201915b5050505050908060050154905086565b60035481565b60005481565b6001548110158015610d97575060025481105b610dd6576040517f08c379a0000000000000000000000000000000000000000000000000000000008152600401610dcd90611e7a565b60405180910390fd5b600560008673ffffffffffffffffffffffffffffffffffffffff1673ffffffffffffffffffffffffffffffffffffffff16815260200190815260200160002060000160009054906101000a900460ff1615610e66576040517f08c379a0000000000000000000000000000000000000000000000000000000008152600401610e5d90611f0c565b60405180910390fd5b3373ffffffffffffffffffffffffffffffffffffffff168573ffffffffffffffffffffffffffffffffffffffff1614610ed4576040517f08c379a0000000000000000000000000000000000000000000000000000000008152600401610ecb90611f9e565b60405180910390fd5b60006040518060c001604052808773ffffffffffffffffffffffffffffffffffffffff1681526020016000548152602001868152602001858152602001848152602001600081525090506001600560008873ffffffffffffffffffffffffffffffffffffffff1673ffffffffffffffffffffffffffffffffffffffff16815260200190815260200160002060000160006101000a81548160ff021916908315150217905550600481908060018154018082558091505060019003906000526020600020906006020160009091909190915060008201518160000160006101000a81548173ffffffffffffffffffffffffffffffffffffffff021916908373ffffffffffffffffffffffffffffffffffffffff1602179055506020820151816001015560408201518160020155606082015181600301908051906020019061101c9291906110d6565b5060808201518160040190805190602001906110399291906110d6565b5060a0820151816005015550507fbe67cb8846ee366bfa01eadb8a4efdfc8530b1adacb76e6f744be072dcf339068682604051611077929190611fbe565b60405180910390a1505050505050565b6040518060c00160405280600073ffffffffffffffffffffffffffffffffffffffff16815260200160008152602001600080191681526020016060815260200160608152602001600081525090565b8280546110e290611a79565b90600052602060002090601f016020900481019282611104576000855561114b565b82601f1061111d57805160ff191683800117855561114b565b8280016001018555821561114b579182015b8281111561114a57825182559160200191906001019061112f565b5b509050611158919061115c565b5090565b5b8082111561117557600081600090555060010161115d565b5090565b6000604051905090565b600080fd5b600080fd5b6000819050919050565b6111a08161118d565b81146111ab57600080fd5b50565b6000813590506111bd81611197565b92915050565b6000602082840312156111d9576111d8611183565b5b60006111e7848285016111ae565b91505092915050565b600073ffffffffffffffffffffffffffffffffffffffff82169050919050565b600061121b826111f0565b9050919050565b61122b81611210565b82525050565b61123a8161118d565b82525050565b6000819050919050565b61125381611240565b82525050565b600081519050919050565b600082825260208201905092915050565b60005b83811015611293578082015181840152602081019050611278565b838111156112a2576000848401525b50505050565b6000601f19601f8301169050919050565b60006112c482611259565b6112ce8185611264565b93506112de818560208601611275565b6112e7816112a8565b840191505092915050565b600060c08301600083015161130a6000860182611222565b50602083015161131d6020860182611231565b506040830151611330604086018261124a565b506060830151848203606086015261134882826112b9565b9150506080830151848203608086015261136282826112b9565b91505060a083015161137760a0860182611231565b508091505092915050565b6000602082019050818103600083015261139c81846112f2565b905092915050565b6113ad81611210565b81146113b857600080fd5b50565b6000813590506113ca816113a4565b92915050565b6000602082840312156113e6576113e5611183565b5b60006113f4848285016113bb565b91505092915050565b60008115159050919050565b611412816113fd565b82525050565b600060408201905061142d6000830185611409565b61143a6020830184611409565b9392505050565b60008060006060848603121561145a57611459611183565b5b6000611468868287016113bb565b9350506020611479868287016111ae565b925050604061148a868287016111ae565b9150509250925092565b600081519050919050565b600082825260208201905092915050565b6000819050602082019050919050565b600060c0830160008301516114d86000860182611222565b5060208301516114eb6020860182611231565b5060408301516114fe604086018261124a565b506060830151848203606086015261151682826112b9565b9150506080830151848203608086015261153082826112b9565b91505060a083015161154560a0860182611231565b508091505092915050565b600061155c83836114c0565b905092915050565b6000602082019050919050565b600061157c82611494565b611586818561149f565b935083602082028501611598856114b0565b8060005b858110156115d457848403895281516115b58582611550565b94506115c083611564565b925060208a0199505060018101905061159c565b50829750879550505050505092915050565b600060208201905081810360008301526116008184611571565b905092915050565b6116118161118d565b82525050565b600060208201905061162c6000830184611608565b92915050565b61163b81611210565b82525050565b61164a81611240565b82525050565b600082825260208201905092915050565b600061166c82611259565b6116768185611650565b9350611686818560208601611275565b61168f816112a8565b840191505092915050565b600060c0820190506116af6000830189611632565b6116bc6020830188611608565b6116c96040830187611641565b81810360608301526116db8186611661565b905081810360808301526116ef8185611661565b90506116fe60a0830184611608565b979650505050505050565b61171281611240565b811461171d57600080fd5b50565b60008135905061172f81611709565b92915050565b600080fd5b600080fd5b7f4e487b7100000000000000000000000000000000000000000000000000000000600052604160045260246000fd5b611777826112a8565b810181811067ffffffffffffffff821117156117965761179561173f565b5b80604052505050565b60006117a9611179565b90506117b5828261176e565b919050565b600067ffffffffffffffff8211156117d5576117d461173f565b5b6117de826112a8565b9050602081019050919050565b82818337600083830152505050565b600061180d611808846117ba565b61179f565b9050828152602081018484840111156118295761182861173a565b5b6118348482856117eb565b509392505050565b600082601f83011261185157611850611735565b5b81356118618482602086016117fa565b91505092915050565b600080600080600060a0868803121561188657611885611183565b5b6000611894888289016113bb565b95505060206118a588828901611720565b945050604086013567ffffffffffffffff8111156118c6576118c5611188565b5b6118d28882890161183c565b935050606086013567ffffffffffffffff8111156118f3576118f2611188565b5b6118ff8882890161183c565b9250506080611910888289016111ae565b9150509295509295909350565b7f506174636820686173206e6f7420656e64656400000000000000000000000000600082015250565b6000611953601383611650565b915061195e8261191d565b602082019050919050565b6000602082019050818103600083015261198281611946565b9050919050565b7f4e6f2061737365747320776572652075706c6f6164656420746869732070617460008201527f6368000000000000000000000000000000000000000000000000000000000000602082015250565b60006119e5602283611650565b91506119f082611989565b604082019050919050565b60006020820190508181036000830152611a14816119d8565b9050919050565b7f4e487b7100000000000000000000000000000000000000000000000000000000600052603260045260246000fd5b7f4e487b7100000000000000000000000000000000000000000000000000000000600052602260045260246000fd5b60006002820490506001821680611a9157607f821691505b602082108103611aa457611aa3611a4a565b5b50919050565b7f4e487b7100000000000000000000000000000000000000000000000000000000600052601160045260246000fd5b6000611ae48261118d565b91507fffffffffffffffffffffffffffffffffffffffffffffffffffffffffffffffff8203611b1657611b15611aaa565b5b600182019050919050565b7f4e6f7420696e20766f74696e6720706572696f64000000000000000000000000600082015250565b6000611b57601483611650565b9150611b6282611b21565b602082019050919050565b60006020820190508181036000830152611b8681611b4a565b9050919050565b7f55706c6f616465722068617320766f74656420666f7220616e2061737365742060008201527f7468697320706174636800000000000000000000000000000000000000000000602082015250565b6000611be9602a83611650565b9150611bf482611b8d565b604082019050919050565b60006020820190508181036000830152611c1881611bdc565b9050919050565b7f566f7465722063616e277420766f746520666f72207468656972206f776e206160008201527f7373657400000000000000000000000000000000000000000000000000000000602082015250565b6000611c7b602483611650565b9150611c8682611c1f565b604082019050919050565b60006020820190508181036000830152611caa81611c6e565b9050919050565b7f496e64657820696e76616c696400000000000000000000000000000000000000600082015250565b6000611ce7600d83611650565b9150611cf282611cb1565b602082019050919050565b60006020820190508181036000830152611d1681611cda565b9050919050565b7f766f74657220616e64206d6573736167652073656e646572206e6f742074686560008201527f2073616d65000000000000000000000000000000000000000000000000000000602082015250565b6000611d79602583611650565b9150611d8482611d1d565b604082019050919050565b60006020820190508181036000830152611da881611d6c565b9050919050565b6000611dba8261118d565b9150611dc58361118d565b9250827fffffffffffffffffffffffffffffffffffffffffffffffffffffffffffffffff03821115611dfa57611df9611aaa565b5b828201905092915050565b6000604082019050611e1a6000830185611632565b611e276020830184611608565b9392505050565b7f4e6f7420696e2075706c6f616420706572696f64000000000000000000000000600082015250565b6000611e64601483611650565b9150611e6f82611e2e565b602082019050919050565b60006020820190508181036000830152611e9381611e57565b9050919050565b7f55706c6f61646572206861732075706c6f6164656420616e206173736574207460008201527f6869732070617463680000000000000000000000000000000000000000000000602082015250565b6000611ef6602983611650565b9150611f0182611e9a565b604082019050919050565b60006020820190508181036000830152611f2581611ee9565b9050919050565b7f75706c6f6164657220616e64206d6573736167652073656e646572206e6f742060008201527f7468652073616d65000000000000000000000000000000000000000000000000602082015250565b6000611f88602883611650565b9150611f9382611f2c565b604082019050919050565b60006020820190508181036000830152611fb781611f7b565b9050919050565b6000604082019050611fd36000830185611632565b8181036020830152611fe581846112f2565b9050939250505056fea2646970667358221220f367bf956bf503deb34c63984fa0bac51d7d8571ca6eeff3393124c0f05d57fa64736f6c634300080d0033a2646970667358221220e9e07b54a6ad1165b2f256447f133939d574130b46a7ba4acc1d8f8c692bdf9c64736f6c634300080d0033",
  "immutableReferences": {},
  "source": "// SPDX-License-Identifier: UNLICENSED\r\n\r\npragma solidity >=0.7.0 <0.9.0;\r\n\r\nimport \"./Patch.sol\";\r\n\r\ncontract PatchHistory {\r\n    Patch[] public allPatches;\r\n    uint256 public currPatch;\r\n    address private creator;\r\n\r\n    constructor() {\r\n        creator = msg.sender;\r\n    }\r\n\r\n    function createNewPatch(uint256 currTime) public {\r\n        require(msg.sender == creator, \"Unauthorized entity trying to create a patch\");\r\n        require(allPatches.length == 0 || currTime > allPatches[currPatch].endPatchTime(), \"Current patch has not ended\");\r\n        currPatch = allPatches.length;\r\n        Patch newPatch = new Patch(currPatch);\r\n        allPatches.push(newPatch);\r\n    }\r\n\r\n    function getAllPatches() public view returns (Patch[] memory) {\r\n        return allPatches;\r\n    }\r\n}",
  "sourcePath": "D:\\Tubes\\MetaMaker\\dApp\\contracts\\PatchHistory.sol",
  "compiler": {
    "name": "solc",
    "version": "0.8.13+commit.abaa5c0e.Emscripten.clang"
  },
  "schemaVersion": "3.4.16",
  "updatedAt": "2024-12-28T08:33:28.433Z",
  "networkType": "ethereum",
  "devdoc": {
    "kind": "dev",
    "methods": {},
    "version": 1
  },
  "userdoc": {
    "kind": "user",
    "methods": {},
    "version": 1
  }
}