{
  "contractName": "Patch",
  "abi": [
    {
      "inputs": [
        {
          "internalType": "uint256",
          "name": "_patchId",
          "type": "uint256"
        }
      ],
      "stateMutability": "nonpayable",
      "type": "constructor"
    },
    {
      "anonymous": false,
      "inputs": [
        {
          "indexed": false,
          "internalType": "address",
          "name": "_uploader",
          "type": "address"
        },
        {
          "components": [
            {
              "internalType": "address",
              "name": "creator",
              "type": "address"
            },
            {
              "internalType": "uint256",
              "name": "patchId",
              "type": "uint256"
            },
            {
              "internalType": "bytes32",
              "name": "name",
              "type": "bytes32"
            },
            {
              "internalType": "string",
              "name": "link",
              "type": "string"
            },
            {
              "internalType": "uint256",
              "name": "voteCount",
              "type": "uint256"
            }
          ],
          "indexed": false,
          "internalType": "struct Patch.Asset",
          "name": "_asset",
          "type": "tuple"
        }
      ],
      "name": "Uploaded",
      "type": "event"
    },
    {
      "anonymous": false,
      "inputs": [
        {
          "indexed": false,
          "internalType": "address",
          "name": "_voter",
          "type": "address"
        },
        {
          "indexed": false,
          "internalType": "uint256",
          "name": "_assetIdx",
          "type": "uint256"
        }
      ],
      "name": "Voted",
      "type": "event"
    },
    {
      "inputs": [],
      "name": "UPLOAD_PERIOD",
      "outputs": [
        {
          "internalType": "uint256",
          "name": "",
          "type": "uint256"
        }
      ],
      "stateMutability": "view",
      "type": "function"
    },
    {
      "inputs": [],
      "name": "VOTING_PERIOD",
      "outputs": [
        {
          "internalType": "uint256",
          "name": "",
          "type": "uint256"
        }
      ],
      "stateMutability": "view",
      "type": "function"
    },
    {
      "inputs": [
        {
          "internalType": "uint256",
          "name": "",
          "type": "uint256"
        }
      ],
      "name": "allAssets",
      "outputs": [
        {
          "internalType": "address",
          "name": "creator",
          "type": "address"
        },
        {
          "internalType": "uint256",
          "name": "patchId",
          "type": "uint256"
        },
        {
          "internalType": "bytes32",
          "name": "name",
          "type": "bytes32"
        },
        {
          "internalType": "string",
          "name": "link",
          "type": "string"
        },
        {
          "internalType": "uint256",
          "name": "voteCount",
          "type": "uint256"
        }
      ],
      "stateMutability": "view",
      "type": "function"
    },
    {
      "inputs": [],
      "name": "endPatchTime",
      "outputs": [
        {
          "internalType": "uint256",
          "name": "",
          "type": "uint256"
        }
      ],
      "stateMutability": "view",
      "type": "function"
    },
    {
      "inputs": [
        {
          "internalType": "address",
          "name": "",
          "type": "address"
        }
      ],
      "name": "participants",
      "outputs": [
        {
          "internalType": "bool",
          "name": "hasUploaded",
          "type": "bool"
        },
        {
          "internalType": "bool",
          "name": "hasVoted",
          "type": "bool"
        }
      ],
      "stateMutability": "view",
      "type": "function"
    },
    {
      "inputs": [],
      "name": "patchId",
      "outputs": [
        {
          "internalType": "uint256",
          "name": "",
          "type": "uint256"
        }
      ],
      "stateMutability": "view",
      "type": "function"
    },
    {
      "inputs": [],
      "name": "startPatchTime",
      "outputs": [
        {
          "internalType": "uint256",
          "name": "",
          "type": "uint256"
        }
      ],
      "stateMutability": "view",
      "type": "function"
    },
    {
      "inputs": [],
      "name": "startVoteTime",
      "outputs": [
        {
          "internalType": "uint256",
          "name": "",
          "type": "uint256"
        }
      ],
      "stateMutability": "view",
      "type": "function"
    },
    {
      "inputs": [
        {
          "internalType": "address",
          "name": "_uploader",
          "type": "address"
        },
        {
          "internalType": "bytes32",
          "name": "_assetName",
          "type": "bytes32"
        },
        {
          "internalType": "string",
          "name": "_assetLink",
          "type": "string"
        },
        {
          "internalType": "uint256",
          "name": "_currTimeSecs",
          "type": "uint256"
        }
      ],
      "name": "uploadAsset",
      "outputs": [],
      "stateMutability": "nonpayable",
      "type": "function"
    },
    {
      "inputs": [],
      "name": "getAllAssets",
      "outputs": [
        {
          "components": [
            {
              "internalType": "address",
              "name": "creator",
              "type": "address"
            },
            {
              "internalType": "uint256",
              "name": "patchId",
              "type": "uint256"
            },
            {
              "internalType": "bytes32",
              "name": "name",
              "type": "bytes32"
            },
            {
              "internalType": "string",
              "name": "link",
              "type": "string"
            },
            {
              "internalType": "uint256",
              "name": "voteCount",
              "type": "uint256"
            }
          ],
          "internalType": "struct Patch.Asset[]",
          "name": "",
          "type": "tuple[]"
        }
      ],
      "stateMutability": "view",
      "type": "function"
    },
    {
      "inputs": [
        {
          "internalType": "address",
          "name": "_voter",
          "type": "address"
        },
        {
          "internalType": "uint256",
          "name": "_assetIdx",
          "type": "uint256"
        },
        {
          "internalType": "uint256",
          "name": "_currTimeSecs",
          "type": "uint256"
        }
      ],
      "name": "vote",
      "outputs": [],
      "stateMutability": "nonpayable",
      "type": "function"
    },
    {
      "inputs": [],
      "name": "declareWinner",
      "outputs": [
        {
          "components": [
            {
              "internalType": "address",
              "name": "creator",
              "type": "address"
            },
            {
              "internalType": "uint256",
              "name": "patchId",
              "type": "uint256"
            },
            {
              "internalType": "bytes32",
              "name": "name",
              "type": "bytes32"
            },
            {
              "internalType": "string",
              "name": "link",
              "type": "string"
            },
            {
              "internalType": "uint256",
              "name": "voteCount",
              "type": "uint256"
            }
          ],
          "internalType": "struct Patch.Asset",
          "name": "",
          "type": "tuple"
        }
      ],
      "stateMutability": "view",
      "type": "function"
    }
  ],
  "bytecode": "0x60806040523480156200001157600080fd5b5060405162001d1438038062001d148339818101604052810190620000379190620000be565b8060008190555042600181905550620fd2006001546200005891906200011f565b6002819055506202a3006002546200007191906200011f565b600381905550506200017c565b600080fd5b6000819050919050565b620000988162000083565b8114620000a457600080fd5b50565b600081519050620000b8816200008d565b92915050565b600060208284031215620000d757620000d66200007e565b5b6000620000e784828501620000a7565b91505092915050565b7f4e487b7100000000000000000000000000000000000000000000000000000000600052601160045260246000fd5b60006200012c8262000083565b9150620001398362000083565b9250827fffffffffffffffffffffffffffffffffffffffffffffffffffffffffffffffff03821115620001715762000170620000f0565b5b828201905092915050565b611b88806200018c6000396000f3fe608060405234801561001057600080fd5b50600436106100b45760003560e01c8063578e5c2211610071578063578e5c221461017e578063705d9c92146101b257806378bb8b22146101d0578063a7bb8078146101ee578063b1610d7e1461020c578063c066d67d1461022a576100b4565b806309e69ede146100b957806314034bd2146100ea5780632a4a1b73146101085780632acada4d146101245780632cf5bcba1461014257806341fec47514610160575b600080fd5b6100d360048036038101906100ce9190610eec565b610246565b6040516100e1929190610f34565b60405180910390f35b6100f2610284565b6040516100ff91906110ad565b60405180910390f35b610122600480360381019061011d91906110fb565b6105e6565b005b61012c6108a5565b6040516101399190611286565b60405180910390f35b61014a610a0a565b60405161015791906112b7565b60405180910390f35b610168610a10565b60405161017591906112b7565b60405180910390f35b610198600480360381019061019391906112d2565b610a16565b6040516101a9959493929190611367565b60405180910390f35b6101ba610b04565b6040516101c791906112b7565b60405180910390f35b6101d8610b0a565b6040516101e591906112b7565b60405180910390f35b6101f6610b10565b60405161020391906112b7565b60405180910390f35b610214610b17565b60405161022191906112b7565b60405180910390f35b610244600480360381019061023f9190611522565b610b1e565b005b60056020528060005260406000206000915090508060000160009054906101000a900460ff16908060000160019054906101000a900460ff16905082565b61028c610d8f565b60035442116102d0576040517f08c379a00000000000000000000000000000000000000000000000000000000081526004016102c7906115f1565b60405180910390fd5b600060048054905011610318576040517f08c379a000000000000000000000000000000000000000000000000000000000815260040161030f90611683565b60405180910390fd5b6000600460008154811061032f5761032e6116a3565b5b90600052602060002090600502016040518060a00160405290816000820160009054906101000a900473ffffffffffffffffffffffffffffffffffffffff1673ffffffffffffffffffffffffffffffffffffffff1673ffffffffffffffffffffffffffffffffffffffff16815260200160018201548152602001600282015481526020016003820180546103c290611701565b80601f01602080910402602001604051908101604052809291908181526020018280546103ee90611701565b801561043b5780601f106104105761010080835404028352916020019161043b565b820191906000526020600020905b81548152906001019060200180831161041e57829003601f168201915b5050505050815260200160048201548152505090506000600190505b6004805490508110156105de5781608001516004828154811061047d5761047c6116a3565b5b90600052602060002090600502016004015411156105cb57600481815481106104a9576104a86116a3565b5b90600052602060002090600502016040518060a00160405290816000820160009054906101000a900473ffffffffffffffffffffffffffffffffffffffff1673ffffffffffffffffffffffffffffffffffffffff1673ffffffffffffffffffffffffffffffffffffffff168152602001600182015481526020016002820154815260200160038201805461053c90611701565b80601f016020809104026020016040519081016040528092919081815260200182805461056890611701565b80156105b55780601f1061058a576101008083540402835291602001916105b5565b820191906000526020600020905b81548152906001019060200180831161059857829003601f168201915b5050505050815260200160048201548152505091505b80806105d690611761565b915050610457565b508091505090565b60025481101580156105f9575060035481105b610638576040517f08c379a000000000000000000000000000000000000000000000000000000000815260040161062f906117f5565b60405180910390fd5b600560008473ffffffffffffffffffffffffffffffffffffffff1673ffffffffffffffffffffffffffffffffffffffff16815260200190815260200160002060000160019054906101000a900460ff16156106c8576040517f08c379a00000000000000000000000000000000000000000000000000000000081526004016106bf90611887565b60405180910390fd5b8273ffffffffffffffffffffffffffffffffffffffff16600483815481106106f3576106f26116a3565b5b906000526020600020906005020160000160009054906101000a900473ffffffffffffffffffffffffffffffffffffffff1673ffffffffffffffffffffffffffffffffffffffff160361077b576040517f08c379a000000000000000000000000000000000000000000000000000000000815260040161077290611919565b60405180910390fd5b60008210158015610790575060048054905082105b6107cf576040517f08c379a00000000000000000000000000000000000000000000000000000000081526004016107c690611985565b60405180910390fd5b6001600560008573ffffffffffffffffffffffffffffffffffffffff1673ffffffffffffffffffffffffffffffffffffffff16815260200190815260200160002060000160016101000a81548160ff0219169083151502179055506001600483815481106108405761083f6116a3565b5b9060005260206000209060050201600401600082825461086091906119a5565b925050819055507f4d99b957a2bc29a30ebd96a7be8e68fe50a3c701db28a91436490b7d53870ca483836040516108989291906119fb565b60405180910390a1505050565b60606004805480602002602001604051908101604052809291908181526020016000905b82821015610a0157838290600052602060002090600502016040518060a00160405290816000820160009054906101000a900473ffffffffffffffffffffffffffffffffffffffff1673ffffffffffffffffffffffffffffffffffffffff1673ffffffffffffffffffffffffffffffffffffffff168152602001600182015481526020016002820154815260200160038201805461096690611701565b80601f016020809104026020016040519081016040528092919081815260200182805461099290611701565b80156109df5780601f106109b4576101008083540402835291602001916109df565b820191906000526020600020905b8154815290600101906020018083116109c257829003601f168201915b50505050508152602001600482015481525050815260200190600101906108c9565b50505050905090565b60025481565b60015481565b60048181548110610a2657600080fd5b90600052602060002090600502016000915090508060000160009054906101000a900473ffffffffffffffffffffffffffffffffffffffff1690806001015490806002015490806003018054610a7b90611701565b80601f0160208091040260200160405190810160405280929190818152602001828054610aa790611701565b8015610af45780601f10610ac957610100808354040283529160200191610af4565b820191906000526020600020905b815481529060010190602001808311610ad757829003601f168201915b5050505050908060040154905085565b60035481565b60005481565b620fd20081565b6202a30081565b6001548110158015610b31575060025481105b610b70576040517f08c379a0000000000000000000000000000000000000000000000000000000008152600401610b6790611a70565b60405180910390fd5b600560008573ffffffffffffffffffffffffffffffffffffffff1673ffffffffffffffffffffffffffffffffffffffff16815260200190815260200160002060000160009054906101000a900460ff1615610c00576040517f08c379a0000000000000000000000000000000000000000000000000000000008152600401610bf790611b02565b60405180910390fd5b60006040518060a001604052808673ffffffffffffffffffffffffffffffffffffffff1681526020016000548152602001858152602001848152602001600081525090506001600560008773ffffffffffffffffffffffffffffffffffffffff1673ffffffffffffffffffffffffffffffffffffffff16815260200190815260200160002060000160006101000a81548160ff021916908315150217905550600481908060018154018082558091505060019003906000526020600020906005020160009091909190915060008201518160000160006101000a81548173ffffffffffffffffffffffffffffffffffffffff021916908373ffffffffffffffffffffffffffffffffffffffff16021790555060208201518160010155604082015181600201556060820151816003019080519060200190610d42929190610dd7565b506080820151816004015550507f50a0791bda2393848e08a22a2c5f32eed2813d3c257711bd352f7af56f3bd7518582604051610d80929190611b22565b60405180910390a15050505050565b6040518060a00160405280600073ffffffffffffffffffffffffffffffffffffffff168152602001600081526020016000801916815260200160608152602001600081525090565b828054610de390611701565b90600052602060002090601f016020900481019282610e055760008555610e4c565b82601f10610e1e57805160ff1916838001178555610e4c565b82800160010185558215610e4c579182015b82811115610e4b578251825591602001919060010190610e30565b5b509050610e599190610e5d565b5090565b5b80821115610e76576000816000905550600101610e5e565b5090565b6000604051905090565b600080fd5b600080fd5b600073ffffffffffffffffffffffffffffffffffffffff82169050919050565b6000610eb982610e8e565b9050919050565b610ec981610eae565b8114610ed457600080fd5b50565b600081359050610ee681610ec0565b92915050565b600060208284031215610f0257610f01610e84565b5b6000610f1084828501610ed7565b91505092915050565b60008115159050919050565b610f2e81610f19565b82525050565b6000604082019050610f496000830185610f25565b610f566020830184610f25565b9392505050565b610f6681610eae565b82525050565b6000819050919050565b610f7f81610f6c565b82525050565b6000819050919050565b610f9881610f85565b82525050565b600081519050919050565b600082825260208201905092915050565b60005b83811015610fd8578082015181840152602081019050610fbd565b83811115610fe7576000848401525b50505050565b6000601f19601f8301169050919050565b600061100982610f9e565b6110138185610fa9565b9350611023818560208601610fba565b61102c81610fed565b840191505092915050565b600060a08301600083015161104f6000860182610f5d565b5060208301516110626020860182610f76565b5060408301516110756040860182610f8f565b506060830151848203606086015261108d8282610ffe565b91505060808301516110a26080860182610f76565b508091505092915050565b600060208201905081810360008301526110c78184611037565b905092915050565b6110d881610f6c565b81146110e357600080fd5b50565b6000813590506110f5816110cf565b92915050565b60008060006060848603121561111457611113610e84565b5b600061112286828701610ed7565b9350506020611133868287016110e6565b9250506040611144868287016110e6565b9150509250925092565b600081519050919050565b600082825260208201905092915050565b6000819050602082019050919050565b600060a0830160008301516111926000860182610f5d565b5060208301516111a56020860182610f76565b5060408301516111b86040860182610f8f565b50606083015184820360608601526111d08282610ffe565b91505060808301516111e56080860182610f76565b508091505092915050565b60006111fc838361117a565b905092915050565b6000602082019050919050565b600061121c8261114e565b6112268185611159565b9350836020820285016112388561116a565b8060005b85811015611274578484038952815161125585826111f0565b945061126083611204565b925060208a0199505060018101905061123c565b50829750879550505050505092915050565b600060208201905081810360008301526112a08184611211565b905092915050565b6112b181610f6c565b82525050565b60006020820190506112cc60008301846112a8565b92915050565b6000602082840312156112e8576112e7610e84565b5b60006112f6848285016110e6565b91505092915050565b61130881610eae565b82525050565b61131781610f85565b82525050565b600082825260208201905092915050565b600061133982610f9e565b611343818561131d565b9350611353818560208601610fba565b61135c81610fed565b840191505092915050565b600060a08201905061137c60008301886112ff565b61138960208301876112a8565b611396604083018661130e565b81810360608301526113a8818561132e565b90506113b760808301846112a8565b9695505050505050565b6113ca81610f85565b81146113d557600080fd5b50565b6000813590506113e7816113c1565b92915050565b600080fd5b600080fd5b7f4e487b7100000000000000000000000000000000000000000000000000000000600052604160045260246000fd5b61142f82610fed565b810181811067ffffffffffffffff8211171561144e5761144d6113f7565b5b80604052505050565b6000611461610e7a565b905061146d8282611426565b919050565b600067ffffffffffffffff82111561148d5761148c6113f7565b5b61149682610fed565b9050602081019050919050565b82818337600083830152505050565b60006114c56114c084611472565b611457565b9050828152602081018484840111156114e1576114e06113f2565b5b6114ec8482856114a3565b509392505050565b600082601f830112611509576115086113ed565b5b81356115198482602086016114b2565b91505092915050565b6000806000806080858703121561153c5761153b610e84565b5b600061154a87828801610ed7565b945050602061155b878288016113d8565b935050604085013567ffffffffffffffff81111561157c5761157b610e89565b5b611588878288016114f4565b9250506060611599878288016110e6565b91505092959194509250565b7f506174636820686173206e6f7420656e64656400000000000000000000000000600082015250565b60006115db60138361131d565b91506115e6826115a5565b602082019050919050565b6000602082019050818103600083015261160a816115ce565b9050919050565b7f4e6f2061737365747320776572652075706c6f6164656420746869732070617460008201527f6368000000000000000000000000000000000000000000000000000000000000602082015250565b600061166d60228361131d565b915061167882611611565b604082019050919050565b6000602082019050818103600083015261169c81611660565b9050919050565b7f4e487b7100000000000000000000000000000000000000000000000000000000600052603260045260246000fd5b7f4e487b7100000000000000000000000000000000000000000000000000000000600052602260045260246000fd5b6000600282049050600182168061171957607f821691505b60208210810361172c5761172b6116d2565b5b50919050565b7f4e487b7100000000000000000000000000000000000000000000000000000000600052601160045260246000fd5b600061176c82610f6c565b91507fffffffffffffffffffffffffffffffffffffffffffffffffffffffffffffffff820361179e5761179d611732565b5b600182019050919050565b7f4e6f7420696e20766f74696e6720706572696f64000000000000000000000000600082015250565b60006117df60148361131d565b91506117ea826117a9565b602082019050919050565b6000602082019050818103600083015261180e816117d2565b9050919050565b7f55706c6f616465722068617320766f74656420666f7220616e2061737365742060008201527f7468697320706174636800000000000000000000000000000000000000000000602082015250565b6000611871602a8361131d565b915061187c82611815565b604082019050919050565b600060208201905081810360008301526118a081611864565b9050919050565b7f566f7465722063616e277420766f746520666f72207468656972206f776e206160008201527f7373657400000000000000000000000000000000000000000000000000000000602082015250565b600061190360248361131d565b915061190e826118a7565b604082019050919050565b60006020820190508181036000830152611932816118f6565b9050919050565b7f496e64657820696e76616c696400000000000000000000000000000000000000600082015250565b600061196f600d8361131d565b915061197a82611939565b602082019050919050565b6000602082019050818103600083015261199e81611962565b9050919050565b60006119b082610f6c565b91506119bb83610f6c565b9250827fffffffffffffffffffffffffffffffffffffffffffffffffffffffffffffffff038211156119f0576119ef611732565b5b828201905092915050565b6000604082019050611a1060008301856112ff565b611a1d60208301846112a8565b9392505050565b7f4e6f7420696e2075706c6f616420706572696f64000000000000000000000000600082015250565b6000611a5a60148361131d565b9150611a6582611a24565b602082019050919050565b60006020820190508181036000830152611a8981611a4d565b9050919050565b7f55706c6f61646572206861732075706c6f6164656420616e206173736574207460008201527f6869732070617463680000000000000000000000000000000000000000000000602082015250565b6000611aec60298361131d565b9150611af782611a90565b604082019050919050565b60006020820190508181036000830152611b1b81611adf565b9050919050565b6000604082019050611b3760008301856112ff565b8181036020830152611b498184611037565b9050939250505056fea264697066735822122025785a8beb0d3a7d923948b16845d6bd2a8267dfe42911d245f120eec1c1354764736f6c634300080d0033",
  "immutableReferences": {},
  "source": "// SPDX-License-Identifier: UNLICENSED\n\npragma solidity >=0.7.0 <0.9.0;\n\ncontract Patch {\n    uint256 public patchId;\n    uint256 public startPatchTime;\n    uint256 public startVoteTime;\n    uint256 public endPatchTime;\n    uint256 public constant UPLOAD_PERIOD = 1036800;\n    uint256 public constant VOTING_PERIOD = 172800;\n\n    struct Asset {\n        address creator;\n        uint256 patchId;\n        bytes32 name;\n        string link;\n        uint256 voteCount;\n    }\n\n    struct Participant {\n        bool hasUploaded;\n        bool hasVoted;\n    }\n\n    // List of all assets\n    Asset[] public allAssets;\n    // Track upload and vote status of all participants\n    mapping(address => Participant) public participants;\n    // Important patch events\n    event Voted(address _voter, uint _assetIdx);\n    event Uploaded(address _uploader, Asset _asset);\n\n    constructor(uint256 _patchId) {\n        patchId = _patchId;\n        startPatchTime = block.timestamp;\n        startVoteTime = startPatchTime + UPLOAD_PERIOD;\n        endPatchTime = startVoteTime + VOTING_PERIOD;\n    }\n\n    function uploadAsset(address _uploader, bytes32 _assetName, string memory _assetLink, uint256 _currTimeSecs) public {\n        require(_currTimeSecs >= startPatchTime && _currTimeSecs < startVoteTime, \"Not in upload period\");\n        require(!participants[_uploader].hasUploaded, \"Uploader has uploaded an asset this patch\");\n        Asset memory newAsset = Asset(_uploader, patchId, _assetName, _assetLink, 0);\n        participants[_uploader].hasUploaded = true;\n        allAssets.push(newAsset);\n        emit Uploaded(_uploader, newAsset);\n    }\n\n    function getAllAssets() public view returns (Asset[] memory) {\n        return allAssets;\n    }\n\n    function vote(address _voter, uint _assetIdx, uint256 _currTimeSecs) public {\n        require(_currTimeSecs >= startVoteTime && _currTimeSecs < endPatchTime, \"Not in voting period\");\n        require(!participants[_voter].hasVoted, \"Uploader has voted for an asset this patch\");\n        require(!(allAssets[_assetIdx].creator == _voter), \"Voter can't vote for their own asset\");\n        require(_assetIdx >= 0 && _assetIdx < allAssets.length, \"Index invalid\");\n        participants[_voter].hasVoted = true;\n        allAssets[_assetIdx].voteCount += 1;\n        emit Voted(_voter, _assetIdx);\n    }\n\n    function declareWinner() public view returns (Asset memory) {\n        require(block.timestamp > endPatchTime, \"Patch has not ended\");\n        require(allAssets.length > 0, \"No assets were uploaded this patch\");\n\n        Asset memory winner = allAssets[0];\n        for (uint256 i = 1; i < allAssets.length; i++) {\n            if (allAssets[i].voteCount > winner.voteCount) {\n                winner = allAssets[i];\n            }\n        }\n\n        return winner;\n    }\n}",
  "sourcePath": "C:\\Users\\user\\Documents\\College\\ITB - Informatika\\Semester 7\\IF4035 - Blockchain\\MetaMaker\\dApp\\contracts\\Patch.sol",
  "compiler": {
    "name": "solc",
    "version": "0.8.13+commit.abaa5c0e.Emscripten.clang"
  },
  "schemaVersion": "3.4.16",
  "updatedAt": "2024-12-28T05:45:59.898Z",
  "devdoc": {
    "kind": "dev",
    "methods": {},
    "version": 1
  },
  "userdoc": {
    "kind": "user",
    "methods": {},
    "version": 1
  }
}