{
  "contractName": "PatchHistory",
  "abi": [
    {
      "inputs": [],
      "stateMutability": "nonpayable",
      "type": "constructor"
    },
    {
      "inputs": [
        {
          "internalType": "uint256",
          "name": "",
          "type": "uint256"
        }
      ],
      "name": "allPatches",
      "outputs": [
        {
          "internalType": "contract Patch",
          "name": "",
          "type": "address"
        }
      ],
      "stateMutability": "view",
      "type": "function",
      "constant": true
    },
    {
      "inputs": [],
      "name": "currPatch",
      "outputs": [
        {
          "internalType": "uint256",
          "name": "",
          "type": "uint256"
        }
      ],
      "stateMutability": "view",
      "type": "function",
      "constant": true
    },
    {
      "inputs": [
        {
          "internalType": "uint256",
          "name": "currTime",
          "type": "uint256"
        }
      ],
      "name": "createNewPatch",
      "outputs": [],
      "stateMutability": "nonpayable",
      "type": "function"
    },
    {
      "inputs": [],
      "name": "getAllPatches",
      "outputs": [
        {
          "internalType": "contract Patch[]",
          "name": "",
          "type": "address[]"
        }
      ],
      "stateMutability": "view",
      "type": "function",
      "constant": true
    }
  ],
  "bytecode": "0x608060405234801561001057600080fd5b5033600260006101000a81548173ffffffffffffffffffffffffffffffffffffffff021916908373ffffffffffffffffffffffffffffffffffffffff160217905550612865806100616000396000f3fe608060405234801561001057600080fd5b506004361061004c5760003560e01c80632d138f78146100515780635598c4e61461006d578063b64e60b21461008b578063c358dd2a146100a9575b600080fd5b61006b60048036038101906100669190610430565b6100d9565b005b610075610315565b604051610082919061046c565b60405180910390f35b61009361031b565b6040516100a091906105b5565b60405180910390f35b6100c360048036038101906100be9190610430565b6103a9565b6040516100d091906105e6565b60405180910390f35b600260009054906101000a900473ffffffffffffffffffffffffffffffffffffffff1673ffffffffffffffffffffffffffffffffffffffff163373ffffffffffffffffffffffffffffffffffffffff1614610169576040517f08c379a000000000000000000000000000000000000000000000000000000000815260040161016090610684565b60405180910390fd5b600080805490501480610229575060006001548154811061018d5761018c6106a4565b5b9060005260206000200160009054906101000a900473ffffffffffffffffffffffffffffffffffffffff1673ffffffffffffffffffffffffffffffffffffffff1663705d9c926040518163ffffffff1660e01b8152600401602060405180830381865afa158015610202573d6000803e3d6000fd5b505050506040513d601f19601f8201168201806040525081019061022691906106e8565b81115b610268576040517f08c379a000000000000000000000000000000000000000000000000000000000815260040161025f90610761565b60405180910390fd5b6000805490506001819055506000600154604051610285906103e8565b61028f919061046c565b604051809103906000f0801580156102ab573d6000803e3d6000fd5b5090506000819080600181540180825580915050600190039060005260206000200160009091909190916101000a81548173ffffffffffffffffffffffffffffffffffffffff021916908373ffffffffffffffffffffffffffffffffffffffff1602179055505050565b60015481565b6060600080548060200260200160405190810160405280929190818152602001828054801561039f57602002820191906000526020600020905b8160009054906101000a900473ffffffffffffffffffffffffffffffffffffffff1673ffffffffffffffffffffffffffffffffffffffff1681526020019060010190808311610355575b5050505050905090565b600081815481106103b957600080fd5b906000526020600020016000915054906101000a900473ffffffffffffffffffffffffffffffffffffffff1681565b6120ae8061078283390190565b600080fd5b6000819050919050565b61040d816103fa565b811461041857600080fd5b50565b60008135905061042a81610404565b92915050565b600060208284031215610446576104456103f5565b5b60006104548482850161041b565b91505092915050565b610466816103fa565b82525050565b6000602082019050610481600083018461045d565b92915050565b600081519050919050565b600082825260208201905092915050565b6000819050602082019050919050565b600073ffffffffffffffffffffffffffffffffffffffff82169050919050565b6000819050919050565b60006104f86104f36104ee846104b3565b6104d3565b6104b3565b9050919050565b600061050a826104dd565b9050919050565b600061051c826104ff565b9050919050565b61052c81610511565b82525050565b600061053e8383610523565b60208301905092915050565b6000602082019050919050565b600061056282610487565b61056c8185610492565b9350610577836104a3565b8060005b838110156105a857815161058f8882610532565b975061059a8361054a565b92505060018101905061057b565b5085935050505092915050565b600060208201905081810360008301526105cf8184610557565b905092915050565b6105e081610511565b82525050565b60006020820190506105fb60008301846105d7565b92915050565b600082825260208201905092915050565b7f556e617574686f72697a656420656e7469747920747279696e6720746f20637260008201527f6561746520612070617463680000000000000000000000000000000000000000602082015250565b600061066e602c83610601565b915061067982610612565b604082019050919050565b6000602082019050818103600083015261069d81610661565b9050919050565b7f4e487b7100000000000000000000000000000000000000000000000000000000600052603260045260246000fd5b6000815190506106e281610404565b92915050565b6000602082840312156106fe576106fd6103f5565b5b600061070c848285016106d3565b91505092915050565b7f43757272656e7420706174636820686173206e6f7420656e6465640000000000600082015250565b600061074b601b83610601565b915061075682610715565b602082019050919050565b6000602082019050818103600083015261077a8161073e565b905091905056fe60806040523480156200001157600080fd5b50604051620020ae380380620020ae8339818101604052810190620000379190620000bb565b806000819055504260018190555061012c6001546200005791906200011c565b60028190555060786002546200006e91906200011c565b6003819055505062000179565b600080fd5b6000819050919050565b620000958162000080565b8114620000a157600080fd5b50565b600081519050620000b5816200008a565b92915050565b600060208284031215620000d457620000d36200007b565b5b6000620000e484828501620000a4565b91505092915050565b7f4e487b7100000000000000000000000000000000000000000000000000000000600052601160045260246000fd5b6000620001298262000080565b9150620001368362000080565b9250827fffffffffffffffffffffffffffffffffffffffffffffffffffffffffffffffff038211156200016e576200016d620000ed565b5b828201905092915050565b611f2580620001896000396000f3fe608060405234801561001057600080fd5b506004361061009d5760003560e01c806341fec4751161006657806341fec4751461015b578063578e5c2214610179578063705d9c92146101ae57806378bb8b22146101cc578063e42e0720146101ea5761009d565b8062c2943c146100a257806309e69ede146100d25780632a4a1b73146101035780632acada4d1461011f5780632cf5bcba1461013d575b600080fd5b6100bc60048036038101906100b79190611156565b610206565b6040516100c99190611315565b60405180910390f35b6100ec60048036038101906100e79190611363565b61068f565b6040516100fa9291906113ab565b60405180910390f35b61011d600480360381019061011891906113d4565b6106cd565b005b61012761098c565b6040516101349190611579565b60405180910390f35b610145610b83565b60405161015291906115aa565b60405180910390f35b610163610b89565b60405161017091906115aa565b60405180910390f35b610193600480360381019061018e9190611156565b610b8f565b6040516101a59695949392919061162d565b60405180910390f35b6101b6610d0b565b6040516101c391906115aa565b60405180910390f35b6101d4610d11565b6040516101e191906115aa565b60405180910390f35b61020460048036038101906101ff91906117fd565b610d17565b005b61020e61101a565b600354821015610253576040517f08c379a000000000000000000000000000000000000000000000000000000000815260040161024a906118fc565b60405180910390fd5b60006004805490501161029b576040517f08c379a00000000000000000000000000000000000000000000000000000000081526004016102929061198e565b60405180910390fd5b600060046000815481106102b2576102b16119ae565b5b90600052602060002090600602016040518060c00160405290816000820160009054906101000a900473ffffffffffffffffffffffffffffffffffffffff1673ffffffffffffffffffffffffffffffffffffffff1673ffffffffffffffffffffffffffffffffffffffff168152602001600182015481526020016002820154815260200160038201805461034590611a0c565b80601f016020809104026020016040519081016040528092919081815260200182805461037190611a0c565b80156103be5780601f10610393576101008083540402835291602001916103be565b820191906000526020600020905b8154815290600101906020018083116103a157829003601f168201915b505050505081526020016004820180546103d790611a0c565b80601f016020809104026020016040519081016040528092919081815260200182805461040390611a0c565b80156104505780601f1061042557610100808354040283529160200191610450565b820191906000526020600020905b81548152906001019060200180831161043357829003601f168201915b5050505050815260200160058201548152505090506000600190505b600480549050811015610685578160a0015160048281548110610492576104916119ae565b5b906000526020600020906006020160050154111561067257600481815481106104be576104bd6119ae565b5b90600052602060002090600602016040518060c00160405290816000820160009054906101000a900473ffffffffffffffffffffffffffffffffffffffff1673ffffffffffffffffffffffffffffffffffffffff1673ffffffffffffffffffffffffffffffffffffffff168152602001600182015481526020016002820154815260200160038201805461055190611a0c565b80601f016020809104026020016040519081016040528092919081815260200182805461057d90611a0c565b80156105ca5780601f1061059f576101008083540402835291602001916105ca565b820191906000526020600020905b8154815290600101906020018083116105ad57829003601f168201915b505050505081526020016004820180546105e390611a0c565b80601f016020809104026020016040519081016040528092919081815260200182805461060f90611a0c565b801561065c5780601f106106315761010080835404028352916020019161065c565b820191906000526020600020905b81548152906001019060200180831161063f57829003601f168201915b5050505050815260200160058201548152505091505b808061067d90611a6c565b91505061046c565b5080915050919050565b60056020528060005260406000206000915090508060000160009054906101000a900460ff16908060000160019054906101000a900460ff16905082565b60025481101580156106e0575060035481105b61071f576040517f08c379a000000000000000000000000000000000000000000000000000000000815260040161071690611b00565b60405180910390fd5b600560008473ffffffffffffffffffffffffffffffffffffffff1673ffffffffffffffffffffffffffffffffffffffff16815260200190815260200160002060000160019054906101000a900460ff16156107af576040517f08c379a00000000000000000000000000000000000000000000000000000000081526004016107a690611b92565b60405180910390fd5b8273ffffffffffffffffffffffffffffffffffffffff16600483815481106107da576107d96119ae565b5b906000526020600020906006020160000160009054906101000a900473ffffffffffffffffffffffffffffffffffffffff1673ffffffffffffffffffffffffffffffffffffffff1603610862576040517f08c379a000000000000000000000000000000000000000000000000000000000815260040161085990611c24565b60405180910390fd5b60008210158015610877575060048054905082105b6108b6576040517f08c379a00000000000000000000000000000000000000000000000000000000081526004016108ad90611c90565b60405180910390fd5b6001600560008573ffffffffffffffffffffffffffffffffffffffff1673ffffffffffffffffffffffffffffffffffffffff16815260200190815260200160002060000160016101000a81548160ff021916908315150217905550600160048381548110610927576109266119ae565b5b906000526020600020906006020160050160008282546109479190611cb0565b925050819055507f4d99b957a2bc29a30ebd96a7be8e68fe50a3c701db28a91436490b7d53870ca4838360405161097f929190611d06565b60405180910390a1505050565b60606004805480602002602001604051908101604052809291908181526020016000905b82821015610b7a57838290600052602060002090600602016040518060c00160405290816000820160009054906101000a900473ffffffffffffffffffffffffffffffffffffffff1673ffffffffffffffffffffffffffffffffffffffff1673ffffffffffffffffffffffffffffffffffffffff1681526020016001820154815260200160028201548152602001600382018054610a4d90611a0c565b80601f0160208091040260200160405190810160405280929190818152602001828054610a7990611a0c565b8015610ac65780601f10610a9b57610100808354040283529160200191610ac6565b820191906000526020600020905b815481529060010190602001808311610aa957829003601f168201915b50505050508152602001600482018054610adf90611a0c565b80601f0160208091040260200160405190810160405280929190818152602001828054610b0b90611a0c565b8015610b585780601f10610b2d57610100808354040283529160200191610b58565b820191906000526020600020905b815481529060010190602001808311610b3b57829003601f168201915b50505050508152602001600582015481525050815260200190600101906109b0565b50505050905090565b60025481565b60015481565b60048181548110610b9f57600080fd5b90600052602060002090600602016000915090508060000160009054906101000a900473ffffffffffffffffffffffffffffffffffffffff1690806001015490806002015490806003018054610bf490611a0c565b80601f0160208091040260200160405190810160405280929190818152602001828054610c2090611a0c565b8015610c6d5780601f10610c4257610100808354040283529160200191610c6d565b820191906000526020600020905b815481529060010190602001808311610c5057829003601f168201915b505050505090806004018054610c8290611a0c565b80601f0160208091040260200160405190810160405280929190818152602001828054610cae90611a0c565b8015610cfb5780601f10610cd057610100808354040283529160200191610cfb565b820191906000526020600020905b815481529060010190602001808311610cde57829003601f168201915b5050505050908060050154905086565b60035481565b60005481565b6001548110158015610d2a575060025481105b610d69576040517f08c379a0000000000000000000000000000000000000000000000000000000008152600401610d6090611d7b565b60405180910390fd5b600560008673ffffffffffffffffffffffffffffffffffffffff1673ffffffffffffffffffffffffffffffffffffffff16815260200190815260200160002060000160009054906101000a900460ff1615610df9576040517f08c379a0000000000000000000000000000000000000000000000000000000008152600401610df090611e0d565b60405180910390fd5b3373ffffffffffffffffffffffffffffffffffffffff168573ffffffffffffffffffffffffffffffffffffffff1614610e67576040517f08c379a0000000000000000000000000000000000000000000000000000000008152600401610e5e90611e9f565b60405180910390fd5b60006040518060c001604052808773ffffffffffffffffffffffffffffffffffffffff1681526020016000548152602001868152602001858152602001848152602001600081525090506001600560008873ffffffffffffffffffffffffffffffffffffffff1673ffffffffffffffffffffffffffffffffffffffff16815260200190815260200160002060000160006101000a81548160ff021916908315150217905550600481908060018154018082558091505060019003906000526020600020906006020160009091909190915060008201518160000160006101000a81548173ffffffffffffffffffffffffffffffffffffffff021916908373ffffffffffffffffffffffffffffffffffffffff16021790555060208201518160010155604082015181600201556060820151816003019080519060200190610faf929190611069565b506080820151816004019080519060200190610fcc929190611069565b5060a0820151816005015550507fbe67cb8846ee366bfa01eadb8a4efdfc8530b1adacb76e6f744be072dcf33906868260405161100a929190611ebf565b60405180910390a1505050505050565b6040518060c00160405280600073ffffffffffffffffffffffffffffffffffffffff16815260200160008152602001600080191681526020016060815260200160608152602001600081525090565b82805461107590611a0c565b90600052602060002090601f01602090048101928261109757600085556110de565b82601f106110b057805160ff19168380011785556110de565b828001600101855582156110de579182015b828111156110dd5782518255916020019190600101906110c2565b5b5090506110eb91906110ef565b5090565b5b808211156111085760008160009055506001016110f0565b5090565b6000604051905090565b600080fd5b600080fd5b6000819050919050565b61113381611120565b811461113e57600080fd5b50565b6000813590506111508161112a565b92915050565b60006020828403121561116c5761116b611116565b5b600061117a84828501611141565b91505092915050565b600073ffffffffffffffffffffffffffffffffffffffff82169050919050565b60006111ae82611183565b9050919050565b6111be816111a3565b82525050565b6111cd81611120565b82525050565b6000819050919050565b6111e6816111d3565b82525050565b600081519050919050565b600082825260208201905092915050565b60005b8381101561122657808201518184015260208101905061120b565b83811115611235576000848401525b50505050565b6000601f19601f8301169050919050565b6000611257826111ec565b61126181856111f7565b9350611271818560208601611208565b61127a8161123b565b840191505092915050565b600060c08301600083015161129d60008601826111b5565b5060208301516112b060208601826111c4565b5060408301516112c360408601826111dd565b50606083015184820360608601526112db828261124c565b915050608083015184820360808601526112f5828261124c565b91505060a083015161130a60a08601826111c4565b508091505092915050565b6000602082019050818103600083015261132f8184611285565b905092915050565b611340816111a3565b811461134b57600080fd5b50565b60008135905061135d81611337565b92915050565b60006020828403121561137957611378611116565b5b60006113878482850161134e565b91505092915050565b60008115159050919050565b6113a581611390565b82525050565b60006040820190506113c0600083018561139c565b6113cd602083018461139c565b9392505050565b6000806000606084860312156113ed576113ec611116565b5b60006113fb8682870161134e565b935050602061140c86828701611141565b925050604061141d86828701611141565b9150509250925092565b600081519050919050565b600082825260208201905092915050565b6000819050602082019050919050565b600060c08301600083015161146b60008601826111b5565b50602083015161147e60208601826111c4565b50604083015161149160408601826111dd565b50606083015184820360608601526114a9828261124c565b915050608083015184820360808601526114c3828261124c565b91505060a08301516114d860a08601826111c4565b508091505092915050565b60006114ef8383611453565b905092915050565b6000602082019050919050565b600061150f82611427565b6115198185611432565b93508360208202850161152b85611443565b8060005b85811015611567578484038952815161154885826114e3565b9450611553836114f7565b925060208a0199505060018101905061152f565b50829750879550505050505092915050565b600060208201905081810360008301526115938184611504565b905092915050565b6115a481611120565b82525050565b60006020820190506115bf600083018461159b565b92915050565b6115ce816111a3565b82525050565b6115dd816111d3565b82525050565b600082825260208201905092915050565b60006115ff826111ec565b61160981856115e3565b9350611619818560208601611208565b6116228161123b565b840191505092915050565b600060c08201905061164260008301896115c5565b61164f602083018861159b565b61165c60408301876115d4565b818103606083015261166e81866115f4565b9050818103608083015261168281856115f4565b905061169160a083018461159b565b979650505050505050565b6116a5816111d3565b81146116b057600080fd5b50565b6000813590506116c28161169c565b92915050565b600080fd5b600080fd5b7f4e487b7100000000000000000000000000000000000000000000000000000000600052604160045260246000fd5b61170a8261123b565b810181811067ffffffffffffffff82111715611729576117286116d2565b5b80604052505050565b600061173c61110c565b90506117488282611701565b919050565b600067ffffffffffffffff821115611768576117676116d2565b5b6117718261123b565b9050602081019050919050565b82818337600083830152505050565b60006117a061179b8461174d565b611732565b9050828152602081018484840111156117bc576117bb6116cd565b5b6117c784828561177e565b509392505050565b600082601f8301126117e4576117e36116c8565b5b81356117f484826020860161178d565b91505092915050565b600080600080600060a0868803121561181957611818611116565b5b60006118278882890161134e565b9550506020611838888289016116b3565b945050604086013567ffffffffffffffff8111156118595761185861111b565b5b611865888289016117cf565b935050606086013567ffffffffffffffff8111156118865761188561111b565b5b611892888289016117cf565b92505060806118a388828901611141565b9150509295509295909350565b7f506174636820686173206e6f7420656e64656400000000000000000000000000600082015250565b60006118e66013836115e3565b91506118f1826118b0565b602082019050919050565b60006020820190508181036000830152611915816118d9565b9050919050565b7f4e6f2061737365747320776572652075706c6f6164656420746869732070617460008201527f6368000000000000000000000000000000000000000000000000000000000000602082015250565b60006119786022836115e3565b91506119838261191c565b604082019050919050565b600060208201905081810360008301526119a78161196b565b9050919050565b7f4e487b7100000000000000000000000000000000000000000000000000000000600052603260045260246000fd5b7f4e487b7100000000000000000000000000000000000000000000000000000000600052602260045260246000fd5b60006002820490506001821680611a2457607f821691505b602082108103611a3757611a366119dd565b5b50919050565b7f4e487b7100000000000000000000000000000000000000000000000000000000600052601160045260246000fd5b6000611a7782611120565b91507fffffffffffffffffffffffffffffffffffffffffffffffffffffffffffffffff8203611aa957611aa8611a3d565b5b600182019050919050565b7f4e6f7420696e20766f74696e6720706572696f64000000000000000000000000600082015250565b6000611aea6014836115e3565b9150611af582611ab4565b602082019050919050565b60006020820190508181036000830152611b1981611add565b9050919050565b7f55706c6f616465722068617320766f74656420666f7220616e2061737365742060008201527f7468697320706174636800000000000000000000000000000000000000000000602082015250565b6000611b7c602a836115e3565b9150611b8782611b20565b604082019050919050565b60006020820190508181036000830152611bab81611b6f565b9050919050565b7f566f7465722063616e277420766f746520666f72207468656972206f776e206160008201527f7373657400000000000000000000000000000000000000000000000000000000602082015250565b6000611c0e6024836115e3565b9150611c1982611bb2565b604082019050919050565b60006020820190508181036000830152611c3d81611c01565b9050919050565b7f496e64657820696e76616c696400000000000000000000000000000000000000600082015250565b6000611c7a600d836115e3565b9150611c8582611c44565b602082019050919050565b60006020820190508181036000830152611ca981611c6d565b9050919050565b6000611cbb82611120565b9150611cc683611120565b9250827fffffffffffffffffffffffffffffffffffffffffffffffffffffffffffffffff03821115611cfb57611cfa611a3d565b5b828201905092915050565b6000604082019050611d1b60008301856115c5565b611d28602083018461159b565b9392505050565b7f4e6f7420696e2075706c6f616420706572696f64000000000000000000000000600082015250565b6000611d656014836115e3565b9150611d7082611d2f565b602082019050919050565b60006020820190508181036000830152611d9481611d58565b9050919050565b7f55706c6f61646572206861732075706c6f6164656420616e206173736574207460008201527f6869732070617463680000000000000000000000000000000000000000000000602082015250565b6000611df76029836115e3565b9150611e0282611d9b565b604082019050919050565b60006020820190508181036000830152611e2681611dea565b9050919050565b7f75706c6f6164657220616e64206d6573736167652073656e646572206e6f742060008201527f7468652073616d65000000000000000000000000000000000000000000000000602082015250565b6000611e896028836115e3565b9150611e9482611e2d565b604082019050919050565b60006020820190508181036000830152611eb881611e7c565b9050919050565b6000604082019050611ed460008301856115c5565b8181036020830152611ee68184611285565b9050939250505056fea2646970667358221220e3c707d122256a8c37493223b17e838cc0b39324354d657292db8db4a768610964736f6c634300080d0033a2646970667358221220d298c302d6ba9b01756d98220d3ac547af2088bf49cb25ce1254ddfeb09f5d8464736f6c634300080d0033",
  "immutableReferences": {},
  "source": "// SPDX-License-Identifier: UNLICENSED\n\npragma solidity >=0.7.0 <0.9.0;\n\nimport \"./Patch.sol\";\n\ncontract PatchHistory {\n    Patch[] public allPatches;\n    uint256 public currPatch;\n    address private creator;\n\n    constructor() {\n        creator = msg.sender;\n    }\n\n    function createNewPatch(uint256 currTime) public {\n        require(msg.sender == creator, \"Unauthorized entity trying to create a patch\");\n        require(allPatches.length == 0 || currTime > allPatches[currPatch].endPatchTime(), \"Current patch has not ended\");\n        currPatch = allPatches.length;\n        Patch newPatch = new Patch(currPatch);\n        allPatches.push(newPatch);\n    }\n\n    function getAllPatches() public view returns (Patch[] memory) {\n        return allPatches;\n    }\n}",
  "sourcePath": "C:\\Users\\user\\Documents\\College\\ITB - Informatika\\Semester 7\\IF4035 - Blockchain\\MetaMaker\\dApp\\contracts\\PatchHistory.sol",
  "compiler": {
    "name": "solc",
    "version": "0.8.13+commit.abaa5c0e.Emscripten.clang"
  },
  "schemaVersion": "3.4.16",
  "updatedAt": "2024-12-29T19:12:01.194Z",
  "networkType": "ethereum",
  "devdoc": {
    "kind": "dev",
    "methods": {},
    "version": 1
  },
  "userdoc": {
    "kind": "user",
    "methods": {},
    "version": 1
  }
}