{
  "contractName": "Patch",
  "abi": [
    {
      "inputs": [
        {
          "internalType": "uint256",
          "name": "_patchId",
          "type": "uint256"
        }
      ],
      "stateMutability": "nonpayable",
      "type": "constructor"
    },
    {
      "anonymous": false,
      "inputs": [
        {
          "indexed": false,
          "internalType": "address",
          "name": "_uploader",
          "type": "address"
        },
        {
          "components": [
            {
              "internalType": "address",
              "name": "creator",
              "type": "address"
            },
            {
              "internalType": "uint256",
              "name": "patchId",
              "type": "uint256"
            },
            {
              "internalType": "bytes32",
              "name": "name",
              "type": "bytes32"
            },
            {
              "internalType": "string",
              "name": "link",
              "type": "string"
            },
            {
              "internalType": "uint256",
              "name": "voteCount",
              "type": "uint256"
            }
          ],
          "indexed": false,
          "internalType": "struct Patch.Asset",
          "name": "_asset",
          "type": "tuple"
        }
      ],
      "name": "Uploaded",
      "type": "event"
    },
    {
      "anonymous": false,
      "inputs": [
        {
          "indexed": false,
          "internalType": "address",
          "name": "_voter",
          "type": "address"
        },
        {
          "indexed": false,
          "internalType": "uint256",
          "name": "_assetIdx",
          "type": "uint256"
        }
      ],
      "name": "Voted",
      "type": "event"
    },
    {
      "inputs": [],
      "name": "UPLOAD_PERIOD",
      "outputs": [
        {
          "internalType": "uint256",
          "name": "",
          "type": "uint256"
        }
      ],
      "stateMutability": "view",
      "type": "function"
    },
    {
      "inputs": [],
      "name": "VOTING_PERIOD",
      "outputs": [
        {
          "internalType": "uint256",
          "name": "",
          "type": "uint256"
        }
      ],
      "stateMutability": "view",
      "type": "function"
    },
    {
      "inputs": [
        {
          "internalType": "uint256",
          "name": "",
          "type": "uint256"
        }
      ],
      "name": "allAssets",
      "outputs": [
        {
          "internalType": "address",
          "name": "creator",
          "type": "address"
        },
        {
          "internalType": "uint256",
          "name": "patchId",
          "type": "uint256"
        },
        {
          "internalType": "bytes32",
          "name": "name",
          "type": "bytes32"
        },
        {
          "internalType": "string",
          "name": "link",
          "type": "string"
        },
        {
          "internalType": "uint256",
          "name": "voteCount",
          "type": "uint256"
        }
      ],
      "stateMutability": "view",
      "type": "function"
    },
    {
      "inputs": [],
      "name": "endPatchTime",
      "outputs": [
        {
          "internalType": "uint256",
          "name": "",
          "type": "uint256"
        }
      ],
      "stateMutability": "view",
      "type": "function"
    },
    {
      "inputs": [
        {
          "internalType": "address",
          "name": "",
          "type": "address"
        }
      ],
      "name": "participants",
      "outputs": [
        {
          "internalType": "bool",
          "name": "hasUploaded",
          "type": "bool"
        },
        {
          "internalType": "bool",
          "name": "hasVoted",
          "type": "bool"
        }
      ],
      "stateMutability": "view",
      "type": "function"
    },
    {
      "inputs": [],
      "name": "patchId",
      "outputs": [
        {
          "internalType": "uint256",
          "name": "",
          "type": "uint256"
        }
      ],
      "stateMutability": "view",
      "type": "function"
    },
    {
      "inputs": [],
      "name": "startPatchTime",
      "outputs": [
        {
          "internalType": "uint256",
          "name": "",
          "type": "uint256"
        }
      ],
      "stateMutability": "view",
      "type": "function"
    },
    {
      "inputs": [],
      "name": "startVoteTime",
      "outputs": [
        {
          "internalType": "uint256",
          "name": "",
          "type": "uint256"
        }
      ],
      "stateMutability": "view",
      "type": "function"
    },
    {
      "inputs": [
        {
          "internalType": "address",
          "name": "_uploader",
          "type": "address"
        },
        {
          "internalType": "bytes32",
          "name": "_assetName",
          "type": "bytes32"
        },
        {
          "internalType": "string",
          "name": "_assetLink",
          "type": "string"
        }
      ],
      "name": "uploadAsset",
      "outputs": [],
      "stateMutability": "nonpayable",
      "type": "function"
    },
    {
      "inputs": [],
      "name": "getAllAssets",
      "outputs": [
        {
          "components": [
            {
              "internalType": "address",
              "name": "creator",
              "type": "address"
            },
            {
              "internalType": "uint256",
              "name": "patchId",
              "type": "uint256"
            },
            {
              "internalType": "bytes32",
              "name": "name",
              "type": "bytes32"
            },
            {
              "internalType": "string",
              "name": "link",
              "type": "string"
            },
            {
              "internalType": "uint256",
              "name": "voteCount",
              "type": "uint256"
            }
          ],
          "internalType": "struct Patch.Asset[]",
          "name": "",
          "type": "tuple[]"
        }
      ],
      "stateMutability": "view",
      "type": "function"
    },
    {
      "inputs": [
        {
          "internalType": "address",
          "name": "_voter",
          "type": "address"
        },
        {
          "internalType": "uint256",
          "name": "_assetIdx",
          "type": "uint256"
        }
      ],
      "name": "vote",
      "outputs": [],
      "stateMutability": "nonpayable",
      "type": "function"
    },
    {
      "inputs": [],
      "name": "declareWinner",
      "outputs": [
        {
          "components": [
            {
              "internalType": "address",
              "name": "creator",
              "type": "address"
            },
            {
              "internalType": "uint256",
              "name": "patchId",
              "type": "uint256"
            },
            {
              "internalType": "bytes32",
              "name": "name",
              "type": "bytes32"
            },
            {
              "internalType": "string",
              "name": "link",
              "type": "string"
            },
            {
              "internalType": "uint256",
              "name": "voteCount",
              "type": "uint256"
            }
          ],
          "internalType": "struct Patch.Asset",
          "name": "",
          "type": "tuple"
        }
      ],
      "stateMutability": "view",
      "type": "function"
    }
  ],
  "bytecode": "0x60806040523480156200001157600080fd5b5060405162001ba638038062001ba68339818101604052810190620000379190620000be565b8060008190555042600181905550620fd2006001546200005891906200011f565b6002819055506202a3006002546200007191906200011f565b600381905550506200017c565b600080fd5b6000819050919050565b620000988162000083565b8114620000a457600080fd5b50565b600081519050620000b8816200008d565b92915050565b600060208284031215620000d757620000d66200007e565b5b6000620000e784828501620000a7565b91505092915050565b7f4e487b7100000000000000000000000000000000000000000000000000000000600052601160045260246000fd5b60006200012c8262000083565b9150620001398362000083565b9250827fffffffffffffffffffffffffffffffffffffffffffffffffffffffffffffffff03821115620001715762000170620000f0565b5b828201905092915050565b611a1a806200018c6000396000f3fe608060405234801561001057600080fd5b50600436106100b45760003560e01c80635f74bbde116100715780635f74bbde14610196578063705d9c92146101b257806378bb8b22146101d0578063a7bb8078146101ee578063b1610d7e1461020c578063dbf3e2c41461022a576100b4565b806309e69ede146100b957806314034bd2146100ea5780632acada4d146101085780632cf5bcba1461012657806341fec47514610144578063578e5c2214610162575b600080fd5b6100d360048036038101906100ce9190610e37565b610246565b6040516100e1929190610e7f565b60405180910390f35b6100f2610284565b6040516100ff9190610ff8565b60405180910390f35b6101106105e6565b60405161011d9190611152565b60405180910390f35b61012e61074b565b60405161013b9190611183565b60405180910390f35b61014c610751565b6040516101599190611183565b60405180910390f35b61017c600480360381019061017791906111ca565b610757565b60405161018d95949392919061125f565b60405180910390f35b6101b060048036038101906101ab91906112b9565b610845565b005b6101ba610a50565b6040516101c79190611183565b60405180910390f35b6101d8610a56565b6040516101e59190611183565b60405180910390f35b6101f6610a5c565b6040516102039190611183565b60405180910390f35b610214610a63565b6040516102219190611183565b60405180910390f35b610244600480360381019061023f919061145a565b610a6a565b005b60056020528060005260406000206000915090508060000160009054906101000a900460ff16908060000160019054906101000a900460ff16905082565b61028c610cda565b60035442116102d0576040517f08c379a00000000000000000000000000000000000000000000000000000000081526004016102c790611515565b60405180910390fd5b600060048054905011610318576040517f08c379a000000000000000000000000000000000000000000000000000000000815260040161030f906115a7565b60405180910390fd5b6000600460008154811061032f5761032e6115c7565b5b90600052602060002090600502016040518060a00160405290816000820160009054906101000a900473ffffffffffffffffffffffffffffffffffffffff1673ffffffffffffffffffffffffffffffffffffffff1673ffffffffffffffffffffffffffffffffffffffff16815260200160018201548152602001600282015481526020016003820180546103c290611625565b80601f01602080910402602001604051908101604052809291908181526020018280546103ee90611625565b801561043b5780601f106104105761010080835404028352916020019161043b565b820191906000526020600020905b81548152906001019060200180831161041e57829003601f168201915b5050505050815260200160048201548152505090506000600190505b6004805490508110156105de5781608001516004828154811061047d5761047c6115c7565b5b90600052602060002090600502016004015411156105cb57600481815481106104a9576104a86115c7565b5b90600052602060002090600502016040518060a00160405290816000820160009054906101000a900473ffffffffffffffffffffffffffffffffffffffff1673ffffffffffffffffffffffffffffffffffffffff1673ffffffffffffffffffffffffffffffffffffffff168152602001600182015481526020016002820154815260200160038201805461053c90611625565b80601f016020809104026020016040519081016040528092919081815260200182805461056890611625565b80156105b55780601f1061058a576101008083540402835291602001916105b5565b820191906000526020600020905b81548152906001019060200180831161059857829003601f168201915b5050505050815260200160048201548152505091505b80806105d690611685565b915050610457565b508091505090565b60606004805480602002602001604051908101604052809291908181526020016000905b8282101561074257838290600052602060002090600502016040518060a00160405290816000820160009054906101000a900473ffffffffffffffffffffffffffffffffffffffff1673ffffffffffffffffffffffffffffffffffffffff1673ffffffffffffffffffffffffffffffffffffffff16815260200160018201548152602001600282015481526020016003820180546106a790611625565b80601f01602080910402602001604051908101604052809291908181526020018280546106d390611625565b80156107205780601f106106f557610100808354040283529160200191610720565b820191906000526020600020905b81548152906001019060200180831161070357829003601f168201915b505050505081526020016004820154815250508152602001906001019061060a565b50505050905090565b60025481565b60015481565b6004818154811061076757600080fd5b90600052602060002090600502016000915090508060000160009054906101000a900473ffffffffffffffffffffffffffffffffffffffff16908060010154908060020154908060030180546107bc90611625565b80601f01602080910402602001604051908101604052809291908181526020018280546107e890611625565b80156108355780601f1061080a57610100808354040283529160200191610835565b820191906000526020600020905b81548152906001019060200180831161081857829003601f168201915b5050505050908060040154905085565b6002544210158015610858575060035442105b610897576040517f08c379a000000000000000000000000000000000000000000000000000000000815260040161088e90611719565b60405180910390fd5b600560008373ffffffffffffffffffffffffffffffffffffffff1673ffffffffffffffffffffffffffffffffffffffff16815260200190815260200160002060000160019054906101000a900460ff1615610927576040517f08c379a000000000000000000000000000000000000000000000000000000000815260040161091e906117ab565b60405180910390fd5b6000811015801561093c575060048054905081105b61097b576040517f08c379a000000000000000000000000000000000000000000000000000000000815260040161097290611817565b60405180910390fd5b6001600560008473ffffffffffffffffffffffffffffffffffffffff1673ffffffffffffffffffffffffffffffffffffffff16815260200190815260200160002060000160016101000a81548160ff0219169083151502179055506001600482815481106109ec576109eb6115c7565b5b90600052602060002090600502016004016000828254610a0c9190611837565b925050819055507f4d99b957a2bc29a30ebd96a7be8e68fe50a3c701db28a91436490b7d53870ca48282604051610a4492919061188d565b60405180910390a15050565b60035481565b60005481565b620fd20081565b6202a30081565b6001544210158015610a7d575060025442105b610abc576040517f08c379a0000000000000000000000000000000000000000000000000000000008152600401610ab390611902565b60405180910390fd5b600560008473ffffffffffffffffffffffffffffffffffffffff1673ffffffffffffffffffffffffffffffffffffffff16815260200190815260200160002060000160009054906101000a900460ff1615610b4c576040517f08c379a0000000000000000000000000000000000000000000000000000000008152600401610b4390611994565b60405180910390fd5b60006040518060a001604052808573ffffffffffffffffffffffffffffffffffffffff1681526020016000548152602001848152602001838152602001600081525090506001600560008673ffffffffffffffffffffffffffffffffffffffff1673ffffffffffffffffffffffffffffffffffffffff16815260200190815260200160002060000160006101000a81548160ff021916908315150217905550600481908060018154018082558091505060019003906000526020600020906005020160009091909190915060008201518160000160006101000a81548173ffffffffffffffffffffffffffffffffffffffff021916908373ffffffffffffffffffffffffffffffffffffffff16021790555060208201518160010155604082015181600201556060820151816003019080519060200190610c8e929190610d22565b506080820151816004015550507f50a0791bda2393848e08a22a2c5f32eed2813d3c257711bd352f7af56f3bd7518482604051610ccc9291906119b4565b60405180910390a150505050565b6040518060a00160405280600073ffffffffffffffffffffffffffffffffffffffff168152602001600081526020016000801916815260200160608152602001600081525090565b828054610d2e90611625565b90600052602060002090601f016020900481019282610d505760008555610d97565b82601f10610d6957805160ff1916838001178555610d97565b82800160010185558215610d97579182015b82811115610d96578251825591602001919060010190610d7b565b5b509050610da49190610da8565b5090565b5b80821115610dc1576000816000905550600101610da9565b5090565b6000604051905090565b600080fd5b600080fd5b600073ffffffffffffffffffffffffffffffffffffffff82169050919050565b6000610e0482610dd9565b9050919050565b610e1481610df9565b8114610e1f57600080fd5b50565b600081359050610e3181610e0b565b92915050565b600060208284031215610e4d57610e4c610dcf565b5b6000610e5b84828501610e22565b91505092915050565b60008115159050919050565b610e7981610e64565b82525050565b6000604082019050610e946000830185610e70565b610ea16020830184610e70565b9392505050565b610eb181610df9565b82525050565b6000819050919050565b610eca81610eb7565b82525050565b6000819050919050565b610ee381610ed0565b82525050565b600081519050919050565b600082825260208201905092915050565b60005b83811015610f23578082015181840152602081019050610f08565b83811115610f32576000848401525b50505050565b6000601f19601f8301169050919050565b6000610f5482610ee9565b610f5e8185610ef4565b9350610f6e818560208601610f05565b610f7781610f38565b840191505092915050565b600060a083016000830151610f9a6000860182610ea8565b506020830151610fad6020860182610ec1565b506040830151610fc06040860182610eda565b5060608301518482036060860152610fd88282610f49565b9150506080830151610fed6080860182610ec1565b508091505092915050565b600060208201905081810360008301526110128184610f82565b905092915050565b600081519050919050565b600082825260208201905092915050565b6000819050602082019050919050565b600060a08301600083015161105e6000860182610ea8565b5060208301516110716020860182610ec1565b5060408301516110846040860182610eda565b506060830151848203606086015261109c8282610f49565b91505060808301516110b16080860182610ec1565b508091505092915050565b60006110c88383611046565b905092915050565b6000602082019050919050565b60006110e88261101a565b6110f28185611025565b93508360208202850161110485611036565b8060005b85811015611140578484038952815161112185826110bc565b945061112c836110d0565b925060208a01995050600181019050611108565b50829750879550505050505092915050565b6000602082019050818103600083015261116c81846110dd565b905092915050565b61117d81610eb7565b82525050565b60006020820190506111986000830184611174565b92915050565b6111a781610eb7565b81146111b257600080fd5b50565b6000813590506111c48161119e565b92915050565b6000602082840312156111e0576111df610dcf565b5b60006111ee848285016111b5565b91505092915050565b61120081610df9565b82525050565b61120f81610ed0565b82525050565b600082825260208201905092915050565b600061123182610ee9565b61123b8185611215565b935061124b818560208601610f05565b61125481610f38565b840191505092915050565b600060a08201905061127460008301886111f7565b6112816020830187611174565b61128e6040830186611206565b81810360608301526112a08185611226565b90506112af6080830184611174565b9695505050505050565b600080604083850312156112d0576112cf610dcf565b5b60006112de85828601610e22565b92505060206112ef858286016111b5565b9150509250929050565b61130281610ed0565b811461130d57600080fd5b50565b60008135905061131f816112f9565b92915050565b600080fd5b600080fd5b7f4e487b7100000000000000000000000000000000000000000000000000000000600052604160045260246000fd5b61136782610f38565b810181811067ffffffffffffffff821117156113865761138561132f565b5b80604052505050565b6000611399610dc5565b90506113a5828261135e565b919050565b600067ffffffffffffffff8211156113c5576113c461132f565b5b6113ce82610f38565b9050602081019050919050565b82818337600083830152505050565b60006113fd6113f8846113aa565b61138f565b9050828152602081018484840111156114195761141861132a565b5b6114248482856113db565b509392505050565b600082601f83011261144157611440611325565b5b81356114518482602086016113ea565b91505092915050565b60008060006060848603121561147357611472610dcf565b5b600061148186828701610e22565b935050602061149286828701611310565b925050604084013567ffffffffffffffff8111156114b3576114b2610dd4565b5b6114bf8682870161142c565b9150509250925092565b7f506174636820686173206e6f7420656e64656400000000000000000000000000600082015250565b60006114ff601383611215565b915061150a826114c9565b602082019050919050565b6000602082019050818103600083015261152e816114f2565b9050919050565b7f4e6f2061737365747320776572652075706c6f6164656420746869732070617460008201527f6368000000000000000000000000000000000000000000000000000000000000602082015250565b6000611591602283611215565b915061159c82611535565b604082019050919050565b600060208201905081810360008301526115c081611584565b9050919050565b7f4e487b7100000000000000000000000000000000000000000000000000000000600052603260045260246000fd5b7f4e487b7100000000000000000000000000000000000000000000000000000000600052602260045260246000fd5b6000600282049050600182168061163d57607f821691505b6020821081036116505761164f6115f6565b5b50919050565b7f4e487b7100000000000000000000000000000000000000000000000000000000600052601160045260246000fd5b600061169082610eb7565b91507fffffffffffffffffffffffffffffffffffffffffffffffffffffffffffffffff82036116c2576116c1611656565b5b600182019050919050565b7f4e6f7420696e20766f74696e6720706572696f64000000000000000000000000600082015250565b6000611703601483611215565b915061170e826116cd565b602082019050919050565b60006020820190508181036000830152611732816116f6565b9050919050565b7f55706c6f616465722068617320766f74656420666f7220616e2061737365742060008201527f7468697320706174636800000000000000000000000000000000000000000000602082015250565b6000611795602a83611215565b91506117a082611739565b604082019050919050565b600060208201905081810360008301526117c481611788565b9050919050565b7f496e64657820696e76616c696400000000000000000000000000000000000000600082015250565b6000611801600d83611215565b915061180c826117cb565b602082019050919050565b60006020820190508181036000830152611830816117f4565b9050919050565b600061184282610eb7565b915061184d83610eb7565b9250827fffffffffffffffffffffffffffffffffffffffffffffffffffffffffffffffff0382111561188257611881611656565b5b828201905092915050565b60006040820190506118a260008301856111f7565b6118af6020830184611174565b9392505050565b7f4e6f7420696e2075706c6f616420706572696f64000000000000000000000000600082015250565b60006118ec601483611215565b91506118f7826118b6565b602082019050919050565b6000602082019050818103600083015261191b816118df565b9050919050565b7f55706c6f61646572206861732075706c6f6164656420616e206173736574207460008201527f6869732070617463680000000000000000000000000000000000000000000000602082015250565b600061197e602983611215565b915061198982611922565b604082019050919050565b600060208201905081810360008301526119ad81611971565b9050919050565b60006040820190506119c960008301856111f7565b81810360208301526119db8184610f82565b9050939250505056fea2646970667358221220504b65774643e2fdfe9468ed2583cbb29ada8fd9b5523ae36c6c3c51ee6245f564736f6c634300080d0033",
  "immutableReferences": {},
  "source": "// SPDX-License-Identifier: UNLICENSED\r\n\r\npragma solidity >=0.7.0 <0.9.0;\r\n\r\ncontract Patch {\r\n    uint256 public patchId;\r\n    uint256 public startPatchTime;\r\n    uint256 public startVoteTime;\r\n    uint256 public endPatchTime;\r\n    uint256 public constant UPLOAD_PERIOD = 1036800;\r\n    uint256 public constant VOTING_PERIOD = 172800;\r\n\r\n    struct Asset {\r\n        address creator;\r\n        uint256 patchId;\r\n        bytes32 name;\r\n        string link;\r\n        uint256 voteCount;\r\n    }\r\n\r\n    struct Participant {\r\n        bool hasUploaded;\r\n        bool hasVoted;\r\n    }\r\n\r\n    // List of all assets\r\n    Asset[] public allAssets;\r\n    // Track upload and vote status of all participants\r\n    mapping(address => Participant) public participants;\r\n    // Important patch events\r\n    event Voted(address _voter, uint _assetIdx);\r\n    event Uploaded(address _uploader, Asset _asset);\r\n\r\n    constructor(uint256 _patchId) {\r\n        patchId = _patchId;\r\n        startPatchTime = block.timestamp;\r\n        startVoteTime = startPatchTime + UPLOAD_PERIOD;\r\n        endPatchTime = startVoteTime + VOTING_PERIOD;\r\n    }\r\n\r\n    modifier isUploadTime {\r\n        require(block.timestamp >= startPatchTime && block.timestamp < startVoteTime, \"Not in upload period\");\r\n        _;\r\n    }\r\n\r\n    modifier isVotingTime {\r\n        require(block.timestamp >= startVoteTime && block.timestamp < endPatchTime, \"Not in voting period\");\r\n        _;\r\n    }\r\n\r\n    function uploadAsset(address _uploader, bytes32 _assetName, string memory _assetLink) public isUploadTime {\r\n        require(!participants[_uploader].hasUploaded, \"Uploader has uploaded an asset this patch\");\r\n        Asset memory newAsset = Asset(_uploader, patchId, _assetName, _assetLink, 0);\r\n        participants[_uploader].hasUploaded = true;\r\n        allAssets.push(newAsset);\r\n        emit Uploaded(_uploader, newAsset);\r\n    }\r\n\r\n    function getAllAssets() public view returns (Asset[] memory) {\r\n        return allAssets;\r\n    }\r\n\r\n    function vote(address _voter, uint _assetIdx) public isVotingTime {\r\n        require(!participants[_voter].hasVoted, \"Uploader has voted for an asset this patch\");\r\n        require(_assetIdx >= 0 && _assetIdx < allAssets.length, \"Index invalid\");\r\n        participants[_voter].hasVoted = true;\r\n        allAssets[_assetIdx].voteCount += 1;\r\n        emit Voted(_voter, _assetIdx);\r\n    }\r\n\r\n    function declareWinner() public view returns (Asset memory) {\r\n        require(block.timestamp > endPatchTime, \"Patch has not ended\");\r\n        require(allAssets.length > 0, \"No assets were uploaded this patch\");\r\n\r\n        Asset memory winner = allAssets[0];\r\n        for (uint256 i = 1; i < allAssets.length; i++) {\r\n            if (allAssets[i].voteCount > winner.voteCount) {\r\n                winner = allAssets[i];\r\n            }\r\n        }\r\n\r\n        return winner;\r\n    }\r\n}",
  "sourcePath": "D:\\Tubes\\MetaMaker\\dApp\\contracts\\Patch.sol",
  "compiler": {
    "name": "solc",
    "version": "0.8.13+commit.abaa5c0e.Emscripten.clang"
  },
  "schemaVersion": "3.4.16",
  "updatedAt": "2024-12-12T14:59:24.691Z",
  "devdoc": {
    "kind": "dev",
    "methods": {},
    "version": 1
  },
  "userdoc": {
    "kind": "user",
    "methods": {},
    "version": 1
  }
}